{
  "_format": "hh-sol-artifact-1",
  "contractName": "GasCapFuturesFactory",
  "sourceName": "contracts/GasCapFuturesFactory.sol",
  "abi": [
    {
      "inputs": [],
      "stateMutability": "nonpayable",
      "type": "constructor"
    },
    {
      "anonymous": false,
      "inputs": [
        {
          "indexed": true,
          "internalType": "address",
          "name": "market",
          "type": "address"
        },
        {
          "indexed": true,
          "internalType": "address",
          "name": "creator",
          "type": "address"
        },
        {
          "indexed": false,
          "internalType": "uint256",
          "name": "index",
          "type": "uint256"
        },
        {
          "indexed": false,
          "internalType": "uint256",
          "name": "strikePrice",
          "type": "uint256"
        },
        {
          "indexed": false,
          "internalType": "uint256",
          "name": "expiryTimestamp",
          "type": "uint256"
        }
      ],
      "name": "MarketCreated",
      "type": "event"
    },
    {
      "inputs": [
        {
          "internalType": "uint256",
          "name": "_strikePrice",
          "type": "uint256"
        },
        {
          "internalType": "uint256",
          "name": "_expiryDuration",
          "type": "uint256"
        },
        {
          "internalType": "string",
          "name": "_marketName",
          "type": "string"
        },
        {
          "internalType": "string",
          "name": "_marketDescription",
          "type": "string"
        }
      ],
      "name": "createMarket",
      "outputs": [
        {
          "internalType": "address",
          "name": "marketAddress",
          "type": "address"
        },
        {
          "internalType": "uint256",
          "name": "index",
          "type": "uint256"
        }
      ],
      "stateMutability": "nonpayable",
      "type": "function"
    },
    {
      "inputs": [],
      "name": "getAllMarkets",
      "outputs": [
        {
          "internalType": "address[]",
          "name": "list",
          "type": "address[]"
        }
      ],
      "stateMutability": "view",
      "type": "function"
    },
    {
      "inputs": [
        {
          "internalType": "uint256",
          "name": "index",
          "type": "uint256"
        }
      ],
      "name": "getMarket",
      "outputs": [
        {
          "internalType": "address",
          "name": "market",
          "type": "address"
        },
        {
          "internalType": "address",
          "name": "creator",
          "type": "address"
        },
        {
          "internalType": "uint256",
          "name": "createdAt",
          "type": "uint256"
        }
      ],
      "stateMutability": "view",
      "type": "function"
    },
    {
      "inputs": [
        {
          "internalType": "address",
          "name": "creator",
          "type": "address"
        }
      ],
      "name": "getMarketsByCreator",
      "outputs": [
        {
          "internalType": "uint256[]",
          "name": "indices",
          "type": "uint256[]"
        }
      ],
      "stateMutability": "view",
      "type": "function"
    },
    {
      "inputs": [
        {
          "internalType": "uint256",
          "name": "",
          "type": "uint256"
        }
      ],
      "name": "markets",
      "outputs": [
        {
          "internalType": "address",
          "name": "market",
          "type": "address"
        },
        {
          "internalType": "address",
          "name": "creator",
          "type": "address"
        },
        {
          "internalType": "uint256",
          "name": "createdAt",
          "type": "uint256"
        }
      ],
      "stateMutability": "view",
      "type": "function"
    },
    {
      "inputs": [
        {
          "internalType": "address",
          "name": "",
          "type": "address"
        },
        {
          "internalType": "uint256",
          "name": "",
          "type": "uint256"
        }
      ],
      "name": "marketsByCreator",
      "outputs": [
        {
          "internalType": "uint256",
          "name": "",
          "type": "uint256"
        }
      ],
      "stateMutability": "view",
      "type": "function"
    },
    {
      "inputs": [],
      "name": "marketsCount",
      "outputs": [
        {
          "internalType": "uint256",
          "name": "",
          "type": "uint256"
        }
      ],
      "stateMutability": "view",
      "type": "function"
    },
    {
      "inputs": [],
      "name": "owner",
      "outputs": [
        {
          "internalType": "address",
          "name": "",
          "type": "address"
        }
      ],
      "stateMutability": "view",
      "type": "function"
    }
  ],
  "bytecode": "0x608060405234801561001057600080fd5b50600080546001600160a01b03191633179055613af9806100326000396000f3fe60806040523480156200001157600080fd5b5060043610620000935760003560e01c8063b0772d0b1162000062578063b0772d0b146200012f578063b1283e771462000148578063e99c80bd1462000186578063eb44fdd314620001ac57600080fd5b806313ba3d1414620000985780631e8b570814620000c25780638da5cb5b14620000cb578063aed6828814620000f8575b600080fd5b620000af620000a936600462000670565b620001c3565b6040519081526020015b60405180910390f35b600154620000af565b600054620000df906001600160a01b031681565b6040516001600160a01b039091168152602001620000b9565b6200010f6200010936600462000748565b620001f5565b604080516001600160a01b039093168352602083019190915201620000b9565b62000139620003ff565b604051620000b99190620007c6565b6200015f6200015936600462000815565b620004d6565b604080516001600160a01b03948516815293909216602084015290820152606001620000b9565b6200019d620001973660046200082f565b62000517565b604051620000b9919062000854565b6200015f620001bd36600462000815565b62000585565b60026020528160005260406000208181548110620001e057600080fd5b90600052602060002001600091509150505481565b6000806000868686866040516200020c9062000645565b6200021b9493929190620008d6565b604051809103906000f08015801562000238573d6000803e3d6000fd5b50604080516060810182526001600160a01b038381168252336020830190815242938301938452600180548082018255600082905293517fb10e2d527612073b26eecdfd717e6a320cf44b4afac2b0732d9fcbe2b7fa0cf6600390950294850180546001600160a01b031990811692861692909217905591517fb10e2d527612073b26eecdfd717e6a320cf44b4afac2b0732d9fcbe2b7fa0cf785018054909316931692909217905591517fb10e2d527612073b26eecdfd717e6a320cf44b4afac2b0732d9fcbe2b7fa0cf89091015580549194508492506200031b916200092c565b33600081815260026020908152604080832080546001810182559084529282902090920184905581516356f3715560e11b8152915193955091926001600160a01b03878116937f885ac52409fdec981ef22524ba5559de27e2c8232ab76d00af025b2bd4c78c519388938e9389169263ade6e2aa92600480820193918290030181865afa158015620003b1573d6000803e3d6000fd5b505050506040513d601f19601f82011682018060405250810190620003d7919062000948565b6040805193845260208401929092529082015260600160405180910390a35094509492505050565b6001546060908067ffffffffffffffff8111156200042157620004216200069d565b6040519080825280602002602001820160405280156200044b578160200160208202803683370190505b50915060005b81811015620004d1576001818154811062000470576200047062000962565b600091825260209091206003909102015483516001600160a01b0390911690849083908110620004a457620004a462000962565b6001600160a01b039092166020928302919091019091015280620004c88162000978565b91505062000451565b505090565b60018181548110620004e757600080fd5b60009182526020909120600390910201805460018201546002909201546001600160a01b03918216935091169083565b6001600160a01b0381166000908152600260209081526040918290208054835181840281018401909452808452606093928301828280156200057957602002820191906000526020600020905b81548152602001906001019080831162000564575b50505050509050919050565b60008060006001805490508410620005d85760405162461bcd60e51b8152602060048201526012602482015271496e646578206f7574206f662072616e676560701b604482015260640160405180910390fd5b600060018581548110620005f057620005f062000962565b60009182526020918290206040805160608101825260039390930290910180546001600160a01b0390811680855260018301549091169484018590526002909101549290910182905297919650945092505050565b61312f806200099583390190565b80356001600160a01b03811681146200066b57600080fd5b919050565b600080604083850312156200068457600080fd5b6200068f8362000653565b946020939093013593505050565b634e487b7160e01b600052604160045260246000fd5b600082601f830112620006c557600080fd5b813567ffffffffffffffff80821115620006e357620006e36200069d565b604051601f8301601f19908116603f011681019082821181831017156200070e576200070e6200069d565b816040528381528660208588010111156200072857600080fd5b836020870160208301376000602085830101528094505050505092915050565b600080600080608085870312156200075f57600080fd5b8435935060208501359250604085013567ffffffffffffffff808211156200078657600080fd5b6200079488838901620006b3565b93506060870135915080821115620007ab57600080fd5b50620007ba87828801620006b3565b91505092959194509250565b6020808252825182820181905260009190848201906040850190845b81811015620008095783516001600160a01b031683529284019291840191600101620007e2565b50909695505050505050565b6000602082840312156200082857600080fd5b5035919050565b6000602082840312156200084257600080fd5b6200084d8262000653565b9392505050565b6020808252825182820181905260009190848201906040850190845b81811015620008095783518352928401929184019160010162000870565b6000815180845260005b81811015620008b65760208185018101518683018201520162000898565b506000602082860101526020601f19601f83011685010191505092915050565b848152836020820152608060408201526000620008f760808301856200088e565b82810360608401526200090b81856200088e565b979650505050505050565b634e487b7160e01b600052601160045260246000fd5b8181038181111562000942576200094262000916565b92915050565b6000602082840312156200095b57600080fd5b5051919050565b634e487b7160e01b600052603260045260246000fd5b6000600182016200098d576200098d62000916565b506001019056fe60806040523480156200001157600080fd5b506040516200312f3803806200312f8339810160408190526200003491620001e5565b600180546001600160a01b0319908116339081179092556002805482169092179091556000805490911673ad67fe66660fb8dfe9d6b1b4240d8650e30f6019179055600584905562000087834262000263565b6006556008805460ff191690556003620000a283826200031a565b506004620000b182826200031a565b50506000805250507f13da86008ba1c6922daee3e07db95305ef49ebced9f5467a0b8613fcc6b343e38054600160ff199182168117909255600b6020527fdf7de25b7f1fd6d0b5205f0e18f1f35bd7b8d84cce336588d184533ce43a6f768054909116909117905550620003e6565b634e487b7160e01b600052604160045260246000fd5b600082601f8301126200014857600080fd5b81516001600160401b038082111562000165576200016562000120565b604051601f8301601f19908116603f0116810190828211818310171562000190576200019062000120565b81604052838152602092508683858801011115620001ad57600080fd5b600091505b83821015620001d15785820183015181830184015290820190620001b2565b600093810190920192909252949350505050565b60008060008060808587031215620001fc57600080fd5b84516020860151604087015191955093506001600160401b03808211156200022357600080fd5b620002318883890162000136565b935060608701519150808211156200024857600080fd5b50620002578782880162000136565b91505092959194509250565b808201808211156200028557634e487b7160e01b600052601160045260246000fd5b92915050565b600181811c90821680620002a057607f821691505b602082108103620002c157634e487b7160e01b600052602260045260246000fd5b50919050565b601f8211156200031557600081815260208120601f850160051c81016020861015620002f05750805b601f850160051c820191505b818110156200031157828155600101620002fc565b5050505b505050565b81516001600160401b0381111562000336576200033662000120565b6200034e816200034784546200028b565b84620002c7565b602080601f8311600181146200038657600084156200036d5750858301515b600019600386901b1c1916600185901b17855562000311565b600085815260208120601f198616915b82811015620003b75788860151825594840194600190910190840162000396565b5085821015620003d65787850151600019600388901b60f8161c191681555b5050505050600190811b01905550565b612d3980620003f66000396000f3fe6080604052600436106102555760003560e01c806381e9bb1511610139578063b34e97e8116100b6578063dd4d8a461161007a578063dd4d8a46146107c5578063e6bfd26a146107e5578063e8078d94146107fa578063e88499a914610802578063f1a640f814610817578063f348e8b21461082c57600080fd5b8063b34e97e814610742578063c52987cf14610757578063daab01b71461076d578063db2e21bc14610780578063dbdd753f1461079557600080fd5b8063a205ac6c116100fd578063a205ac6c1461069c578063a3346ea3146106cc578063a87430ba146106ec578063a877933f1461070c578063ade6e2aa1461072c57600080fd5b806381e9bb15146105f85780638da5cb5b1461060b578063962129161461062b578063987ee1561461064b5780639c8f9f231461067c57600080fd5b8063321e3926116101d257806365119f721161019657806365119f721461050857806371569199146105355780637585085d1461055757806379e963371461056a5780637f4e48491461058c5780638192a437146105e257600080fd5b8063321e3926146103c25780633270bb5b1461040257806335c1d3491461041c57806338b5f8691461043c57806355f575101461045c57600080fd5b80631d2e4afd116102195780631d2e4afd146103185780631e2f73b11461033857806323341a051461037057806327e781bf1461039857806331f7d964146103ad57600080fd5b80630891b2561461026157806310e294511461027857806311af65641461029857806315770f92146102c757806316c19739146102eb57600080fd5b3661025c57005b600080fd5b34801561026d57600080fd5b50610276610842565b005b34801561028457600080fd5b50610276610293366004612447565b610965565b3480156102a457600080fd5b506102ad6109ba565b604080519283526020830191909152015b60405180910390f35b3480156102d357600080fd5b506102dd60115481565b6040519081526020016102be565b3480156102f757600080fd5b5061030b61030636600461247a565b6109cd565b6040516102be91906124d6565b34801561032457600080fd5b506102766103333660046125e2565b610b68565b34801561034457600080fd5b50600254610358906001600160a01b031681565b6040516001600160a01b0390911681526020016102be565b34801561037c57600080fd5b50610385610cf4565b6040516102be9796959493929190612694565b3480156103a457600080fd5b506102dd600981565b3480156103b957600080fd5b50610358600081565b3480156103ce57600080fd5b506103f26103dd36600461247a565b600a6020526000908152604090205460ff1681565b60405190151581526020016102be565b34801561040e57600080fd5b506008546103f29060ff1681565b34801561042857600080fd5b506103586104373660046126f1565b610e61565b34801561044857600080fd5b50600054610358906001600160a01b031681565b34801561046857600080fd5b506104ef61047736600461247a565b600d6020526000908152604090208054600182015460028301546003840154600485015460058601546006870154600788015460089098015460ff80891699610100998a9004821699868316960482169493926001600160a01b039182169291811691600160a01b8204811691600160a81b9004168d565b6040516102be9d9c9b9a9998979695949392919061270a565b34801561051457600080fd5b506102dd61052336600461247a565b60126020526000908152604090205481565b34801561054157600080fd5b5061054a610e8b565b6040516102be9190612795565b6102766105653660046127f3565b610fea565b34801561057657600080fd5b5061057f61102e565b6040516102be919061288a565b34801561059857600080fd5b50600554600654600854600954601154600e5460408051968752602087019590955260ff9093161515938501939093526060840152608083019190915260a082015260c0016102be565b3480156105ee57600080fd5b506102dd60075481565b61027661060636600461289d565b6110bc565b34801561061757600080fd5b50600154610358906001600160a01b031681565b34801561063757600080fd5b506103586106463660046126f1565b6110e9565b34801561065757600080fd5b5061066b61066636600461247a565b6110f9565b6040516102be9594939291906128d2565b34801561068857600080fd5b506102766106973660046126f1565b61129f565b3480156106a857600080fd5b506103f26106b736600461247a565b600b6020526000908152604090205460ff1681565b3480156106d857600080fd5b506103586106e73660046126f1565b6113a1565b3480156106f857600080fd5b5061066b61070736600461247a565b6113b1565b34801561071857600080fd5b506102dd61072736600461247a565b6114f4565b34801561073857600080fd5b506102dd60065481565b34801561074e57600080fd5b50610276611627565b34801561076357600080fd5b506102dd60055481565b61027661077b36600461289d565b6116cb565b34801561078c57600080fd5b506102766116e2565b3480156107a157600080fd5b506103f26107b036600461247a565b60106020526000908152604090205460ff1681565b3480156107d157600080fd5b506102766107e0366004612447565b61176b565b3480156107f157600080fd5b5061057f6117c0565b6102766117cd565b34801561080e57600080fd5b506102766118de565b34801561082357600080fd5b506102dd600581565b34801561083857600080fd5b506102dd60095481565b60065442101561088b5760405162461bcd60e51b815260206004820152600f60248201526e139bdd081e595d08195e1c1a5c9959608a1b60448201526064015b60405180910390fd5b60085460ff16156108ae5760405162461bcd60e51b815260040161088290612914565b6000806108b9611b39565b91509150610e106006546108cd9190612953565b8110156109115760405162461bcd60e51b8152602060048201526012602482015271141c9a58d94819185d18481d1bdbc81bdb1960721b6044820152606401610882565b600982905560078190556008805460ff1916600117905560408051838152602081018390527fbbdea414ca4370d674fd5e370fbc6d7da2dafff34ec019faaf1c36b1180a314b910160405180910390a15050565b6001546001600160a01b0316331461098f5760405162461bcd60e51b81526004016108829061296c565b6001600160a01b03919091166000908152600a60205260409020805460ff1916911515919091179055565b6000806109c5611b39565b915091509091565b610a38604080516101a08101825260008082526020820181905291810182905260608101829052608081018290529060a082019081526020016000815260006020820181905260408201819052606082018190526080820181905260a0820181905260c09091015290565b6001600160a01b0382166000908152600d602090815260409182902082516101a081018452815460ff80821615158352610100909104811615159382019390935260018083015494820194909452600282015460608201526003820154608082015260048201549093919260a0850192911690811115610aba57610aba61249c565b6001811115610acb57610acb61249c565b81526020016004820160019054906101000a900460ff166002811115610af357610af361249c565b6002811115610b0457610b0461249c565b8152600582015460208201526006820154604082015260078201546001600160a01b039081166060830152600890920154918216608082015260ff600160a01b83048116151560a0830152600160a81b909204909116151560c09091015292915050565b336000908152600c602052604090205460ff1615610bbd5760405162461bcd60e51b8152602060048201526012602482015271105b1c9958591e481c9959da5cdd195c995960721b6044820152606401610882565b6040518060a0016040528060011515815260200185858080601f016020809104026020016040519081016040528093929190818152602001838380828437600092019190915250505090825250604080516020601f86018190048102820181019092528481529181019190859085908190840183828082843760009201829052509385525050426020808501829052604094850191909152338352600c8152929091208351815460ff191690151517815591830151600183019150610c829082612a2d565b5060408201516002820190610c979082612a2d565b506060820151600382015560809091015160049091015560405133907f92822564bab8864c3a47b34e8d23fbce5c46234eb5da261f94087b995ac0f33b90610ce6908790879087908790612b16565b60405180910390a250505050565b6000606080600080600080600260009054906101000a90046001600160a01b031660036004600554600654600860009054906101000a900460ff16600954858054610d3e906129a5565b80601f0160208091040260200160405190810160405280929190818152602001828054610d6a906129a5565b8015610db75780601f10610d8c57610100808354040283529160200191610db7565b820191906000526020600020905b815481529060010190602001808311610d9a57829003601f168201915b50505050509550848054610dca906129a5565b80601f0160208091040260200160405190810160405280929190818152602001828054610df6906129a5565b8015610e435780601f10610e1857610100808354040283529160200191610e43565b820191906000526020600020905b815481529060010190602001808311610e2657829003601f168201915b50505050509450965096509650965096509650965090919293949596565b600e8181548110610e7157600080fd5b6000918252602090912001546001600160a01b0316905081565b60606000805b600f54811015610eff5760106000600f8381548110610eb257610eb2612b48565b60009182526020808320909101546001600160a01b0316835282019290925260400190205460ff1615610eed5781610ee981612b5e565b9250505b80610ef781612b5e565b915050610e91565b508067ffffffffffffffff811115610f1957610f1961298f565b604051908082528060200260200182016040528015610f42578160200160208202803683370190505b5091506000805b600f54811015610fe4576000600f8281548110610f6857610f68612b48565b60009182526020808320909101546001600160a01b0316808352601090915260409091205490915060ff1615610fd15780858481518110610fab57610fab612b48565b6001600160a01b039092166020928302919091019091015282610fcd81612b5e565b9350505b5080610fdc81612b5e565b915050610f49565b50505090565b6110228a8a8a60ff8b1615611000576001611003565b60005b8a60ff1660028111156110185761101861249c565b8a8a8a8a8a611cac565b50505050505050505050565b6004805461103b906129a5565b80601f0160208091040260200160405190810160405280929190818152602001828054611067906129a5565b80156110b45780601f10611089576101008083540402835291602001916110b4565b820191906000526020600020905b81548152906001019060200180831161109757829003601f168201915b505050505081565b6110e46001848460ff8516156110d35760016110d6565b60005b600080600080600034611cac565b505050565b60138181548110610e7157600080fd5b6001600160a01b0381166000908152600c60209081526040808320815160a08101909252805460ff161515825260018101805460609485948794859485949293919291840191611148906129a5565b80601f0160208091040260200160405190810160405280929190818152602001828054611174906129a5565b80156111c15780601f10611196576101008083540402835291602001916111c1565b820191906000526020600020905b8154815290600101906020018083116111a457829003601f168201915b505050505081526020016002820180546111da906129a5565b80601f0160208091040260200160405190810160405280929190818152602001828054611206906129a5565b80156112535780601f1061122857610100808354040283529160200191611253565b820191906000526020600020905b81548152906001019060200180831161123657829003601f168201915b5050505050815260200160038201548152602001600482015481525050905080600001518160200151826040015183606001518460800151955095509550955095505091939590929450565b336000908152601260205260409020548111156112fe5760405162461bcd60e51b815260206004820152601f60248201527f496e73756666696369656e742070726f7669646564206c6971756964697479006044820152606401610882565b336000908152601260205260408120805483929061131d908490612953565b9250508190555080601160008282546113369190612953565b9091555050604051339082156108fc029083906000818181858888f19350505050158015611368573d6000803e3d6000fd5b5060405181815233907fc2c3f06e49b9f15e7b4af9055e183b0d73362e033ad82a07dec9bf98401717199060200160405180910390a250565b600f8181548110610e7157600080fd5b600c602052600090815260409020805460018201805460ff90921692916113d7906129a5565b80601f0160208091040260200160405190810160405280929190818152602001828054611403906129a5565b80156114505780601f1061142557610100808354040283529160200191611450565b820191906000526020600020905b81548152906001019060200180831161143357829003601f168201915b505050505090806002018054611465906129a5565b80601f0160208091040260200160405190810160405280929190818152602001828054611491906129a5565b80156114de5780601f106114b3576101008083540402835291602001916114de565b820191906000526020600020905b8154815290600101906020018083116114c157829003601f168201915b5050505050908060030154908060040154905085565b60085460009060ff1661153b5760405162461bcd60e51b815260206004820152600f60248201526e139bdd081cd95d1d1b1959081e595d608a1b6044820152606401610882565b6001600160a01b0382166000908152600d60205260409020805460ff16158061156657506001810154155b8061157c57506008810154600160a81b900460ff165b1561158a5750600092915050565b600060055460095461159c9190612b77565b8254909150600090610100900460ff16156115c75760018301546115c09083612b9e565b90506115e2565b60018301546115d583612bce565b6115df9190612b9e565b90505b60038301546115f19082612b9e565b905060008184600201546116059190612bea565b9050600081121561161c5750600095945050505050565b93505050505b919050565b336000908152600c602052604090205460ff1661167c5760405162461bcd60e51b8152602060048201526013602482015272155cd95c881b9bdd081c9959da5cdd195c9959606a1b6044820152606401610882565b336000818152600c602090815260409182902042600490910181905591519182527fd48e107b75fb4263f47c6775f9695146041b81f4e0eac8b4d6075fd5756cba9491015b60405180910390a2565b6110e46000848460ff8516156110d35760016110d6565b6001546001600160a01b0316331461170c5760405162461bcd60e51b81526004016108829061296c565b60085460ff161561172f5760405162461bcd60e51b815260040161088290612914565b6001546040516001600160a01b03909116904780156108fc02916000818181858888f19350505050158015611768573d6000803e3d6000fd5b50565b6001546001600160a01b031633146117955760405162461bcd60e51b81526004016108829061296c565b6001600160a01b03919091166000908152600b60205260409020805460ff1916911515919091179055565b6003805461103b906129a5565b600034116118165760405162461bcd60e51b81526020600482015260166024820152754d7573742070726f76696465206c697175696469747960501b6044820152606401610882565b33600090815260126020526040812054900361186f57601380546001810182556000919091527f66de8ffda797e3de9c05e8fc57b3bf0ec28a930d40b0d285d93c06501cf6a0900180546001600160a01b031916331790555b336000908152601260205260408120805434929061188e908490612c0a565b9250508190555034601160008282546118a79190612c0a565b909155505060405134815233907fc17cea59c2955cb181b03393209566960365771dbba9dc3d510180e7cb312088906020016116c1565b60085460ff166119225760405162461bcd60e51b815260206004820152600f60248201526e139bdd081cd95d1d1b1959081e595d608a1b6044820152606401610882565b336000908152600d60205260409020805460ff166119705760405162461bcd60e51b815260206004820152600b60248201526a2737903837b9b4ba34b7b760a91b6044820152606401610882565b6008810154600160a81b900460ff16156119be5760405162461bcd60e51b815260206004820152600f60248201526e105b1c9958591e4818db185a5b5959608a1b6044820152606401610882565b60006119c9336114f4565b60088301805461ffff60a01b1916600160a81b1790553360009081526010602052604090205490915060ff1615611a1257336000908152601060205260409020805460ff191690555b8015611b355760088201546001600160a01b031615611a815760405162461bcd60e51b815260206004820152602560248201527f4e6f6e2d6e617469766520736574746c656d656e74206e6f7420696d706c656d604482015264195b9d195960da1b6064820152608401610882565b80471015611ad15760405162461bcd60e51b815260206004820152601d60248201527f496e73756666696369656e7420636f6e74726163742062616c616e63650000006044820152606401610882565b604051339082156108fc029083906000818181858888f19350505050158015611afe573d6000803e3d6000fd5b5060405181815233907fec68461f5d4cc45c89e914cb8826a966c73dd35e5f97815ece0a01ffa4a025a69060200160405180910390a25b5050565b600080546040516342a0f24360e01b815260206004820152600360248201526223262960e91b604482015282916001600160a01b0316906342a0f243906064016040805180830381865afa925050508015611bb1575060408051601f3d908101601f19168201909252611bae91810190612c1d565b60015b15611bdf576000611bc5620f424084612c57565b611bd4906404a817c800612c0a565b959194509092505050565b6000546040516342a0f24360e01b815260206004820152600360248201526242544360e81b60448201526001600160a01b03909116906342a0f243906064016040805180830381865afa925050508015611c56575060408051601f3d908101601f19168201909252611c5391810190612c1d565b60015b15611c79576000611c6a620f424084612c57565b611bd4906405d21dba00612c0a565b6000611c86601e43612c6b565b611c9490633b9aca00612c7f565b611ca3906404a817c800612c0a565b93429350915050565b6006544210611cf05760405162461bcd60e51b815260206004820152601060248201526f10dbdb9d1c9858dd08195e1c1a5c995960821b6044820152606401610882565b60085460ff1615611d135760405162461bcd60e51b815260040161088290612914565b336000908152600c602052604090205460ff16611d685760405162461bcd60e51b8152602060048201526013602482015272155cd95c881b9bdd081c9959da5cdd195c9959606a1b6044820152606401610882565b60008911611db85760405162461bcd60e51b815260206004820152601960248201527f5175616e74697479206d75737420626520706f736974697665000000000000006044820152606401610882565b60008811611dff5760405162461bcd60e51b815260206004820152601460248201527304c65766572616765206d757374206265203e20360641b6044820152606401610882565b336000908152600d602052604090205460ff1615611e5f5760405162461bcd60e51b815260206004820152601760248201527f506f736974696f6e20616c7265616479206578697374730000000000000000006044820152606401610882565b6001600160a01b0383166000908152600a602052604090205460ff16611ec75760405162461bcd60e51b815260206004820152601c60248201527f436f6c6c61746572616c206173736574206e6f7420616c6c6f776564000000006044820152606401610882565b6001600160a01b0382166000908152600b602052604090205460ff16611f2f5760405162461bcd60e51b815260206004820152601c60248201527f536574746c656d656e74206173736574206e6f7420616c6c6f776564000000006044820152606401610882565b6001600160a01b038316611fd65760008111611f8d5760405162461bcd60e51b815260206004820152601760248201527f4d7573742070726f7669646520636f6c6c61746572616c0000000000000000006044820152606401610882565b803414611fd15760405162461bcd60e51b81526020600482015260126024820152710dae6ce5cecc2d8eaca40dad2e6dac2e8c6d60731b6044820152606401610882565b612089565b600081116120265760405162461bcd60e51b815260206004820152601d60248201527f4d7573742070726f7669646520455243323020636f6c6c61746572616c0000006044820152606401610882565b34156120895760405162461bcd60e51b815260206004820152602c60248201527f4e6f206e617469766520746f6b656e207769746820455243323020636f6c6c6160448201526b746572616c2028544f444f2960a01b6064820152608401610882565b600186600281111561209d5761209d61249c565b036120e957600085116120e95760405162461bcd60e51b8152602060048201526014602482015273131a5b5a5d081c1c9a58d9481c995c5d5a5c995960621b6044820152606401610882565b60028660028111156120fd576120fd61249c565b0361214857600084116121485760405162461bcd60e51b815260206004820152601360248201527214dd1bdc081c1c9a58d9481c995c5d5a5c9959606a1b6044820152606401610882565b604051806101a001604052806001151581526020018b151581526020018a81526020018281526020018981526020018860018111156121895761218961249c565b81526020018760028111156121a0576121a061249c565b8152602080820188905260408083018890526001600160a01b03878116606080860191909152908716608080860191909152600160a0808701829052600060c0909701879052338752600d865295849020875181549689015161ffff1990971690151561ff0019161761010096151596909602959095178555928601518484015590850151600284015584015160038301559183015160048201805492939192909160ff1990911690838181111561225a5761225a61249c565b021790555060c082015160048201805461ff0019166101008360028111156122845761228461249c565b021790555060e0820151600582015561010082015160068201556101208201516007820180546001600160a01b039283166001600160a01b03199182161790915561014084015160089093018054610160860151610180909601511515600160a81b0260ff60a81b19961515600160a01b026001600160a81b031990921695909416949094179390931793909316179055600e8054600181019091557fbb7b4a454dc3493923482f07822329ed19e8244eff582cc204f8554c3620c3fd0180549091163390811790915560009081526010602052604090205460ff166123c157336000818152601060205260408120805460ff19166001908117909155600f805491820181559091527f8d1108e10bcb7c27dddfc02ed9d693a074039d026cf4ea4240b40f7d581ac8020180546001600160a01b03191690911790555b336001600160a01b03167fc3ece53667be2f5c309275a08db32c31d38ff57347150922264ba02db2abbade8b8b848c8c8c8c8c8c8c60405161240c9a99989796959493929190612c96565b60405180910390a250505050505050505050565b80356001600160a01b038116811461162257600080fd5b8035801515811461162257600080fd5b6000806040838503121561245a57600080fd5b61246383612420565b915061247160208401612437565b90509250929050565b60006020828403121561248c57600080fd5b61249582612420565b9392505050565b634e487b7160e01b600052602160045260246000fd5b600281106124c2576124c261249c565b9052565b600381106124c2576124c261249c565b8151151581526101a0810160208301516124f4602084018215159052565b5060408301516040830152606083015160608301526080830151608083015260a083015161252560a08401826124b2565b5060c083015161253860c08401826124c6565b5060e083810151908301526101008084015190830152610120808401516001600160a01b039081169184019190915261014080850151909116908301526101608084015115159083015261018080840151801515828501525b505092915050565b60008083601f8401126125ab57600080fd5b50813567ffffffffffffffff8111156125c357600080fd5b6020830191508360208285010111156125db57600080fd5b9250929050565b600080600080604085870312156125f857600080fd5b843567ffffffffffffffff8082111561261057600080fd5b61261c88838901612599565b9096509450602087013591508082111561263557600080fd5b5061264287828801612599565b95989497509550505050565b6000815180845260005b8181101561267457602081850181015186830182015201612658565b506000602082860101526020601f19601f83011685010191505092915050565b6001600160a01b038816815260e0602082018190526000906126b89083018961264e565b82810360408401526126ca818961264e565b60608401979097525050608081019390935290151560a083015260c0909101529392505050565b60006020828403121561270357600080fd5b5035919050565b60006101a0820190508e151582528d151560208301528c60408301528b60608301528a608083015261273f60a083018b6124b2565b61274c60c083018a6124c6565b60e08201979097526101008101959095526001600160a01b0393841661012086015291909216610140840152901515610160830152151561018090910152979650505050505050565b6020808252825182820181905260009190848201906040850190845b818110156127d65783516001600160a01b0316835292840192918401916001016127b1565b50909695505050505050565b803560ff8116811461162257600080fd5b6000806000806000806000806000806101408b8d03121561281357600080fd5b61281c8b612437565b995060208b0135985060408b0135975061283860608c016127e2565b965061284660808c016127e2565b955060a08b0135945060c08b0135935061286260e08c01612420565b92506128716101008c01612420565b91506101208b013590509295989b9194979a5092959850565b602081526000612495602083018461264e565b6000806000606084860312156128b257600080fd5b83359250602084013591506128c9604085016127e2565b90509250925092565b851515815260a0602082015260006128ed60a083018761264e565b82810360408401526128ff818761264e565b60608401959095525050608001529392505050565b6020808252600f908201526e105b1c9958591e481cd95d1d1b1959608a1b604082015260600190565b634e487b7160e01b600052601160045260246000fd5b818103818111156129665761296661293d565b92915050565b6020808252600990820152682737ba1037bbb732b960b91b604082015260600190565b634e487b7160e01b600052604160045260246000fd5b600181811c908216806129b957607f821691505b6020821081036129d957634e487b7160e01b600052602260045260246000fd5b50919050565b601f8211156110e457600081815260208120601f850160051c81016020861015612a065750805b601f850160051c820191505b81811015612a2557828155600101612a12565b505050505050565b815167ffffffffffffffff811115612a4757612a4761298f565b612a5b81612a5584546129a5565b846129df565b602080601f831160018114612a905760008415612a785750858301515b600019600386901b1c1916600185901b178555612a25565b600085815260208120601f198616915b82811015612abf57888601518255948401946001909101908401612aa0565b5085821015612add5787850151600019600388901b60f8161c191681555b5050505050600190811b01905550565b81835281816020850137506000828201602090810191909152601f909101601f19169091010190565b604081526000612b2a604083018688612aed565b8281036020840152612b3d818587612aed565b979650505050505050565b634e487b7160e01b600052603260045260246000fd5b600060018201612b7057612b7061293d565b5060010190565b8181036000831280158383131683831282161715612b9757612b9761293d565b5092915050565b80820260008212600160ff1b84141615612bba57612bba61293d565b81810583148215176129665761296661293d565b6000600160ff1b8201612be357612be361293d565b5060000390565b80820182811260008312801582168215821617156125915761259161293d565b808201808211156129665761296661293d565b60008060408385031215612c3057600080fd5b505080516020909101519092909150565b634e487b7160e01b600052601260045260246000fd5b600082612c6657612c66612c41565b500490565b600082612c7a57612c7a612c41565b500690565b80820281158282048414176129665761296661293d565b6000610140820190508b151582528a6020830152896040830152886060830152612cc360808301896124b2565b612cd060a08301886124c6565b60c082019590955260e08101939093526001600160a01b039182166101008401521661012090910152969550505050505056fea2646970667358221220c16fbbdbc0f5745d37541b14f4179b4de7f95cd67b9f062c1341b5df9941db3c64736f6c63430008130033a2646970667358221220ff18ed282e27a6c37610c72adf3fda1e6e014cd40d32bfe2fcb01d204881074764736f6c63430008130033",
  "linkReferences": {},
  "deployedLinkReferences": {}
}