{"contracts/GasCapFutures.sol":{"GasCapFutures":{"abi":[{"inputs":[{"internalType":"uint256","name":"_strikePrice","type":"uint256"},{"internalType":"uint256","name":"_expiryDuration","type":"uint256"}],"stateMutability":"nonpayable","type":"constructor"},{"anonymous":false,"inputs":[{"indexed":false,"internalType":"uint256","name":"settlementPrice","type":"uint256"},{"indexed":false,"internalType":"uint256","name":"timestamp","type":"uint256"}],"name":"ContractSettled","type":"event"},{"anonymous":false,"inputs":[{"indexed":true,"internalType":"address","name":"trader","type":"address"},{"indexed":false,"internalType":"bool","name":"isLong","type":"bool"},{"indexed":false,"internalType":"uint256","name":"quantity","type":"uint256"},{"indexed":false,"internalType":"uint256","name":"collateral","type":"uint256"}],"name":"FuturesMinted","type":"event"},{"anonymous":false,"inputs":[{"indexed":true,"internalType":"address","name":"provider","type":"address"},{"indexed":false,"internalType":"uint256","name":"amount","type":"uint256"}],"name":"LiquidityAdded","type":"event"},{"anonymous":false,"inputs":[{"indexed":true,"internalType":"address","name":"provider","type":"address"},{"indexed":false,"internalType":"uint256","name":"amount","type":"uint256"}],"name":"LiquidityRemoved","type":"event"},{"anonymous":false,"inputs":[{"indexed":true,"internalType":"address","name":"trader","type":"address"},{"indexed":false,"internalType":"uint256","name":"amount","type":"uint256"}],"name":"PayoutClaimed","type":"event"},{"inputs":[],"name":"GWEI_DECIMALS","outputs":[{"internalType":"uint256","name":"","type":"uint256"}],"stateMutability":"view","type":"function"},{"inputs":[],"name":"PRICE_DECIMALS","outputs":[{"internalType":"uint256","name":"","type":"uint256"}],"stateMutability":"view","type":"function"},{"inputs":[],"name":"addLiquidity","outputs":[],"stateMutability":"payable","type":"function"},{"inputs":[{"internalType":"address","name":"_trader","type":"address"}],"name":"calculatePayout","outputs":[{"internalType":"uint256","name":"","type":"uint256"}],"stateMutability":"view","type":"function"},{"inputs":[],"name":"claimPayout","outputs":[],"stateMutability":"nonpayable","type":"function"},{"inputs":[],"name":"emergencyWithdraw","outputs":[],"stateMutability":"nonpayable","type":"function"},{"inputs":[],"name":"expiryTimestamp","outputs":[{"internalType":"uint256","name":"","type":"uint256"}],"stateMutability":"view","type":"function"},{"inputs":[],"name":"ftsoRegistry","outputs":[{"internalType":"contract IFtsoRegistry","name":"","type":"address"}],"stateMutability":"view","type":"function"},{"inputs":[],"name":"getContractState","outputs":[{"internalType":"uint256","name":"_strikePrice","type":"uint256"},{"internalType":"uint256","name":"_expiryTimestamp","type":"uint256"},{"internalType":"bool","name":"_isSettled","type":"bool"},{"internalType":"uint256","name":"_settlementPrice","type":"uint256"},{"internalType":"uint256","name":"_totalLiquidity","type":"uint256"},{"internalType":"uint256","name":"_participantCount","type":"uint256"}],"stateMutability":"view","type":"function"},{"inputs":[],"name":"getCurrentGasPrice","outputs":[{"internalType":"uint256","name":"price","type":"uint256"},{"internalType":"uint256","name":"timestamp","type":"uint256"}],"stateMutability":"view","type":"function"},{"inputs":[{"internalType":"address","name":"_trader","type":"address"}],"name":"getPosition","outputs":[{"internalType":"bool","name":"isLong","type":"bool"},{"internalType":"uint256","name":"quantity","type":"uint256"},{"internalType":"uint256","name":"collateral","type":"uint256"},{"internalType":"bool","name":"isClaimed","type":"bool"}],"stateMutability":"view","type":"function"},{"inputs":[],"name":"isSettled","outputs":[{"internalType":"bool","name":"","type":"bool"}],"stateMutability":"view","type":"function"},{"inputs":[{"internalType":"address","name":"","type":"address"}],"name":"liquidityProvided","outputs":[{"internalType":"uint256","name":"","type":"uint256"}],"stateMutability":"view","type":"function"},{"inputs":[{"internalType":"uint256","name":"","type":"uint256"}],"name":"liquidityProviders","outputs":[{"internalType":"address","name":"","type":"address"}],"stateMutability":"view","type":"function"},{"inputs":[{"internalType":"uint256","name":"_quantity","type":"uint256"}],"name":"mintLong","outputs":[],"stateMutability":"payable","type":"function"},{"inputs":[{"internalType":"uint256","name":"_quantity","type":"uint256"}],"name":"mintShort","outputs":[],"stateMutability":"payable","type":"function"},{"inputs":[],"name":"owner","outputs":[{"internalType":"address","name":"","type":"address"}],"stateMutability":"view","type":"function"},{"inputs":[{"internalType":"uint256","name":"","type":"uint256"}],"name":"participants","outputs":[{"internalType":"address","name":"","type":"address"}],"stateMutability":"view","type":"function"},{"inputs":[{"internalType":"address","name":"","type":"address"}],"name":"positions","outputs":[{"internalType":"bool","name":"isLong","type":"bool"},{"internalType":"uint256","name":"quantity","type":"uint256"},{"internalType":"uint256","name":"collateral","type":"uint256"},{"internalType":"bool","name":"isClaimed","type":"bool"}],"stateMutability":"view","type":"function"},{"inputs":[],"name":"settleContract","outputs":[],"stateMutability":"nonpayable","type":"function"},{"inputs":[],"name":"settlementPrice","outputs":[{"internalType":"uint256","name":"","type":"uint256"}],"stateMutability":"view","type":"function"},{"inputs":[],"name":"settlementTimestamp","outputs":[{"internalType":"uint256","name":"","type":"uint256"}],"stateMutability":"view","type":"function"},{"inputs":[],"name":"strikePrice","outputs":[{"internalType":"uint256","name":"","type":"uint256"}],"stateMutability":"view","type":"function"},{"inputs":[],"name":"totalLiquidity","outputs":[{"internalType":"uint256","name":"","type":"uint256"}],"stateMutability":"view","type":"function"},{"stateMutability":"payable","type":"receive"}],"evm":{"bytecode":{"linkReferences":{},"object":"608060405234801561001057600080fd5b5060405161138838038061138883398101604081905261002f91610086565b600180546001600160a01b031990811633179091556000805490911673ad67fe66660fb8dfe9d6b1b4240d8650e30f6019179055600282905561007281426100aa565b60035550506005805460ff191690556100d1565b6000806040838503121561009957600080fd5b505080516020909101519092909150565b808201808211156100cb57634e487b7160e01b600052601160045260246000fd5b92915050565b6112a8806100e06000396000f3fe60806040526004361061014f5760003560e01c80638192a437116100b6578063c52987cf1161006f578063c52987cf14610474578063db2e21bc1461048a578063e8078d941461049f578063e88499a9146104a7578063f1a640f8146104bc578063f348e8b2146104d157600080fd5b80638192a437146103d55780638da5cb5b146103eb578063962129161461040b57806397e5f43f1461042b578063a877933f1461043e578063ade6e2aa1461045e57600080fd5b806335c1d3491161010857806335c1d349146102a057806338b5f869146102d857806355f57510146102f857806356c610a11461033f57806365119f72146103525780637f4e48491461037f57600080fd5b80630891b2561461015b57806311af65641461017257806315770f92146101a157806316c19739146101c557806327e781bf146102615780633270bb5b1461027657600080fd5b3661015657005b600080fd5b34801561016757600080fd5b506101706104e7565b005b34801561017e57600080fd5b5061018761060a565b604080519283526020830191909152015b60405180910390f35b3480156101ad57600080fd5b506101b760095481565b604051908152602001610198565b3480156101d157600080fd5b5061023d6101e03660046110aa565b6001600160a01b03166000908152600760209081526040918290208251608081018452815460ff90811615158083526001840154948301859052600284015495830186905260039093015416151560609091018190529093919291565b60408051941515855260208501939093529183015215156060820152608001610198565b34801561026d57600080fd5b506101b7600981565b34801561028257600080fd5b506005546102909060ff1681565b6040519015158152602001610198565b3480156102ac57600080fd5b506102c06102bb3660046110da565b61061d565b6040516001600160a01b039091168152602001610198565b3480156102e457600080fd5b506000546102c0906001600160a01b031681565b34801561030457600080fd5b5061023d6103133660046110aa565b600760205260009081526040902080546001820154600283015460039093015460ff9283169391921684565b61017061034d3660046110da565b610647565b34801561035e57600080fd5b506101b761036d3660046110aa565b600a6020526000908152604090205481565b34801561038b57600080fd5b5060025460035460055460065460095460085460408051968752602087019590955260ff9093161515938501939093526060840152608083019190915260a082015260c001610198565b3480156103e157600080fd5b506101b760045481565b3480156103f757600080fd5b506001546102c0906001600160a01b031681565b34801561041757600080fd5b506102c06104263660046110da565b610885565b6101706104393660046110da565b610895565b34801561044a57600080fd5b506101b76104593660046110aa565b610ac8565b34801561046a57600080fd5b506101b760035481565b34801561048057600080fd5b506101b760025481565b34801561049657600080fd5b50610170610c03565b610170610ca8565b3480156104b357600080fd5b50610170610dbe565b3480156104c857600080fd5b506101b7600581565b3480156104dd57600080fd5b506101b760065481565b6003544210156105305760405162461bcd60e51b815260206004820152600f60248201526e139bdd081e595d08195e1c1a5c9959608a1b60448201526064015b60405180910390fd5b60055460ff16156105535760405162461bcd60e51b8152600401610527906110f3565b60008061055e610f37565b91509150610e106003546105729190611132565b8110156105b65760405162461bcd60e51b8152602060048201526012602482015271141c9a58d94819185d18481d1bdbc81bdb1960721b6044820152606401610527565b600682905560048190556005805460ff1916600117905560408051838152602081018390527fbbdea414ca4370d674fd5e370fbc6d7da2dafff34ec019faaf1c36b1180a314b910160405180910390a15050565b600080610615610f37565b915091509091565b6008818154811061062d57600080fd5b6000918252602090912001546001600160a01b0316905081565b600354421061068b5760405162461bcd60e51b815260206004820152601060248201526f10dbdb9d1c9858dd08195e1c1a5c995960821b6044820152606401610527565b60055460ff16156106ae5760405162461bcd60e51b8152600401610527906110f3565b600081116106fa5760405162461bcd60e51b81526020600482015260196024820152785175616e74697479206d75737420626520706f73697469766560381b6044820152606401610527565b600034116107445760405162461bcd60e51b8152602060048201526017602482015276135d5cdd081c1c9bdd9a59194818dbdb1b185d195c985b604a1b6044820152606401610527565b336000908152600760205260409020600101541561079e5760405162461bcd60e51b8152602060048201526017602482015276506f736974696f6e20616c72656164792065786973747360481b6044820152606401610527565b604080516080810182526000808252602080830185815234848601818152606080870186815233808852600787528988209851895490151560ff19918216178a5595516001808b0191909155935160028a0155905160039098018054981515989095169790971790935560088054918201815585527ff3f7a9fe364faab93b216da50a3214154f22a0a2b415b23a84c8169e8b636ee30180546001600160a01b0319168617905585519384529183018690529382015290917f92f020f57fe38f73494c0ddc53833d0c93e1d1d82514d28f2c0ba30b169cd78891015b60405180910390a250565b600b818154811061062d57600080fd5b60035442106108d95760405162461bcd60e51b815260206004820152601060248201526f10dbdb9d1c9858dd08195e1c1a5c995960821b6044820152606401610527565b60055460ff16156108fc5760405162461bcd60e51b8152600401610527906110f3565b600081116109485760405162461bcd60e51b81526020600482015260196024820152785175616e74697479206d75737420626520706f73697469766560381b6044820152606401610527565b600034116109925760405162461bcd60e51b8152602060048201526017602482015276135d5cdd081c1c9bdd9a59194818dbdb1b185d195c985b604a1b6044820152606401610527565b33600090815260076020526040902060010154156109ec5760405162461bcd60e51b8152602060048201526017602482015276506f736974696f6e20616c72656164792065786973747360481b6044820152606401610527565b6040805160808101825260018082526020808301858152348486018181526000606080880182815233808452600788528a842099518a5490151560ff19918216178b5596518a8a0155935160028a01555160039098018054981515989095169790971790935560088054808701825593527ff3f7a9fe364faab93b216da50a3214154f22a0a2b415b23a84c8169e8b636ee390920180546001600160a01b031916831790558551938452918301869052938201527f92f020f57fe38f73494c0ddc53833d0c93e1d1d82514d28f2c0ba30b169cd788910161087a565b60055460009060ff16610b0f5760405162461bcd60e51b815260206004820152600f60248201526e139bdd081cd95d1d1b1959081e595d608a1b6044820152606401610527565b6001600160a01b0382166000908152600760209081526040918290208251608081018452815460ff908116151582526001830154938201849052600283015494820194909452600390910154909216151560608301521580610b72575080606001515b15610b805750600092915050565b6000600254600654610b92919061114b565b90506000826000015115610bb6576020830151610baf9083611172565b9050610bd1565b6020830151610bc4836111a2565b610bce9190611172565b90505b6000818460400151610be391906111be565b90506000811215610bfa5750600095945050505050565b95945050505050565b6001546001600160a01b03163314610c495760405162461bcd60e51b81526020600482015260096024820152682737ba1037bbb732b960b91b6044820152606401610527565b60055460ff1615610c6c5760405162461bcd60e51b8152600401610527906110f3565b6001546040516001600160a01b03909116904780156108fc02916000818181858888f19350505050158015610ca5573d6000803e3d6000fd5b50565b60003411610cf15760405162461bcd60e51b81526020600482015260166024820152754d7573742070726f76696465206c697175696469747960501b6044820152606401610527565b336000908152600a60205260408120549003610d4a57600b80546001810182556000919091527f0175b7a638427703f0dbe7bb9bbf987a2551717b34e79f33b5b1008d1fa01db90180546001600160a01b031916331790555b336000908152600a602052604081208054349290610d699084906111e6565b925050819055503460096000828254610d8291906111e6565b909155505060405134815233907fc17cea59c2955cb181b03393209566960365771dbba9dc3d510180e7cb3120889060200160405180910390a2565b60055460ff16610e025760405162461bcd60e51b815260206004820152600f60248201526e139bdd081cd95d1d1b1959081e595d608a1b6044820152606401610527565b3360009081526007602052604090206003015460ff1615610e575760405162461bcd60e51b815260206004820152600f60248201526e105b1c9958591e4818db185a5b5959608a1b6044820152606401610527565b6000610e6233610ac8565b336000908152600760205260409020600301805460ff1916600117905590508015610ca55780471015610ed75760405162461bcd60e51b815260206004820152601d60248201527f496e73756666696369656e7420636f6e74726163742062616c616e63650000006044820152606401610527565b604051339082156108fc029083906000818181858888f19350505050158015610f04573d6000803e3d6000fd5b5060405181815233907fec68461f5d4cc45c89e914cb8826a966c73dd35e5f97815ece0a01ffa4a025a69060200161087a565b600080546040516342a0f24360e01b815260206004820152600360248201526223262960e91b604482015282916001600160a01b0316906342a0f243906064016040805180830381865afa925050508015610faf575060408051601f3d908101601f19168201909252610fac918101906111f9565b60015b15610fdd576000610fc3620f424084611233565b610fd2906404a817c8006111e6565b959194509092505050565b6000546040516342a0f24360e01b815260206004820152600360248201526242544360e81b60448201526001600160a01b03909116906342a0f243906064016040805180830381865afa925050508015611054575060408051601f3d908101601f19168201909252611051918101906111f9565b60015b15611077576000611068620f424084611233565b610fd2906405d21dba006111e6565b6000611084601e43611247565b61109290633b9aca0061125b565b6110a1906404a817c8006111e6565b93429350915050565b6000602082840312156110bc57600080fd5b81356001600160a01b03811681146110d357600080fd5b9392505050565b6000602082840312156110ec57600080fd5b5035919050565b6020808252600f908201526e105b1c9958591e481cd95d1d1b1959608a1b604082015260600190565b634e487b7160e01b600052601160045260246000fd5b818103818111156111455761114561111c565b92915050565b818103600083128015838313168383128216171561116b5761116b61111c565b5092915050565b80820260008212600160ff1b8414161561118e5761118e61111c565b81810583148215176111455761114561111c565b6000600160ff1b82016111b7576111b761111c565b5060000390565b80820182811260008312801582168215821617156111de576111de61111c565b505092915050565b808201808211156111455761114561111c565b6000806040838503121561120c57600080fd5b505080516020909101519092909150565b634e487b7160e01b600052601260045260246000fd5b6000826112425761124261121d565b500490565b6000826112565761125661121d565b500690565b80820281158282048414176111455761114561111c56fea26469706673582212200ba82bd51a6e473fcaacc1c2cc24024bc678adeefcddacf9d3441aa95dbbb58964736f6c63430008130033","opcodes":"PUSH1 0x80 PUSH1 0x40 MSTORE CALLVALUE DUP1 ISZERO PUSH2 0x10 JUMPI PUSH1 0x0 DUP1 REVERT JUMPDEST POP PUSH1 0x40 MLOAD PUSH2 0x1388 CODESIZE SUB DUP1 PUSH2 0x1388 DUP4 CODECOPY DUP2 ADD PUSH1 0x40 DUP2 SWAP1 MSTORE PUSH2 0x2F SWAP2 PUSH2 0x86 JUMP JUMPDEST PUSH1 0x1 DUP1 SLOAD PUSH1 0x1 PUSH1 0x1 PUSH1 0xA0 SHL SUB NOT SWAP1 DUP2 AND CALLER OR SWAP1 SWAP2 SSTORE PUSH1 0x0 DUP1 SLOAD SWAP1 SWAP2 AND PUSH20 0xAD67FE66660FB8DFE9D6B1B4240D8650E30F6019 OR SWAP1 SSTORE PUSH1 0x2 DUP3 SWAP1 SSTORE PUSH2 0x72 DUP2 TIMESTAMP PUSH2 0xAA JUMP JUMPDEST PUSH1 0x3 SSTORE POP POP PUSH1 0x5 DUP1 SLOAD PUSH1 0xFF NOT AND SWAP1 SSTORE PUSH2 0xD1 JUMP JUMPDEST PUSH1 0x0 DUP1 PUSH1 0x40 DUP4 DUP6 SUB SLT ISZERO PUSH2 0x99 JUMPI PUSH1 0x0 DUP1 REVERT JUMPDEST POP POP DUP1 MLOAD PUSH1 0x20 SWAP1 SWAP2 ADD MLOAD SWAP1 SWAP3 SWAP1 SWAP2 POP JUMP JUMPDEST DUP1 DUP3 ADD DUP1 DUP3 GT ISZERO PUSH2 0xCB JUMPI PUSH4 0x4E487B71 PUSH1 0xE0 SHL PUSH1 0x0 MSTORE PUSH1 0x11 PUSH1 0x4 MSTORE PUSH1 0x24 PUSH1 0x0 REVERT JUMPDEST SWAP3 SWAP2 POP POP JUMP JUMPDEST PUSH2 0x12A8 DUP1 PUSH2 0xE0 PUSH1 0x0 CODECOPY PUSH1 0x0 RETURN INVALID PUSH1 0x80 PUSH1 0x40 MSTORE PUSH1 0x4 CALLDATASIZE LT PUSH2 0x14F JUMPI PUSH1 0x0 CALLDATALOAD PUSH1 0xE0 SHR DUP1 PUSH4 0x8192A437 GT PUSH2 0xB6 JUMPI DUP1 PUSH4 0xC52987CF GT PUSH2 0x6F JUMPI DUP1 PUSH4 0xC52987CF EQ PUSH2 0x474 JUMPI DUP1 PUSH4 0xDB2E21BC EQ PUSH2 0x48A JUMPI DUP1 PUSH4 0xE8078D94 EQ PUSH2 0x49F JUMPI DUP1 PUSH4 0xE88499A9 EQ PUSH2 0x4A7 JUMPI DUP1 PUSH4 0xF1A640F8 EQ PUSH2 0x4BC JUMPI DUP1 PUSH4 0xF348E8B2 EQ PUSH2 0x4D1 JUMPI PUSH1 0x0 DUP1 REVERT JUMPDEST DUP1 PUSH4 0x8192A437 EQ PUSH2 0x3D5 JUMPI DUP1 PUSH4 0x8DA5CB5B EQ PUSH2 0x3EB JUMPI DUP1 PUSH4 0x96212916 EQ PUSH2 0x40B JUMPI DUP1 PUSH4 0x97E5F43F EQ PUSH2 0x42B JUMPI DUP1 PUSH4 0xA877933F EQ PUSH2 0x43E JUMPI DUP1 PUSH4 0xADE6E2AA EQ PUSH2 0x45E JUMPI PUSH1 0x0 DUP1 REVERT JUMPDEST DUP1 PUSH4 0x35C1D349 GT PUSH2 0x108 JUMPI DUP1 PUSH4 0x35C1D349 EQ PUSH2 0x2A0 JUMPI DUP1 PUSH4 0x38B5F869 EQ PUSH2 0x2D8 JUMPI DUP1 PUSH4 0x55F57510 EQ PUSH2 0x2F8 JUMPI DUP1 PUSH4 0x56C610A1 EQ PUSH2 0x33F JUMPI DUP1 PUSH4 0x65119F72 EQ PUSH2 0x352 JUMPI DUP1 PUSH4 0x7F4E4849 EQ PUSH2 0x37F JUMPI PUSH1 0x0 DUP1 REVERT JUMPDEST DUP1 PUSH4 0x891B256 EQ PUSH2 0x15B JUMPI DUP1 PUSH4 0x11AF6564 EQ PUSH2 0x172 JUMPI DUP1 PUSH4 0x15770F92 EQ PUSH2 0x1A1 JUMPI DUP1 PUSH4 0x16C19739 EQ PUSH2 0x1C5 JUMPI DUP1 PUSH4 0x27E781BF EQ PUSH2 0x261 JUMPI DUP1 PUSH4 0x3270BB5B EQ PUSH2 0x276 JUMPI PUSH1 0x0 DUP1 REVERT JUMPDEST CALLDATASIZE PUSH2 0x156 JUMPI STOP JUMPDEST PUSH1 0x0 DUP1 REVERT JUMPDEST CALLVALUE DUP1 ISZERO PUSH2 0x167 JUMPI PUSH1 0x0 DUP1 REVERT JUMPDEST POP PUSH2 0x170 PUSH2 0x4E7 JUMP JUMPDEST STOP JUMPDEST CALLVALUE DUP1 ISZERO PUSH2 0x17E JUMPI PUSH1 0x0 DUP1 REVERT JUMPDEST POP PUSH2 0x187 PUSH2 0x60A JUMP JUMPDEST PUSH1 0x40 DUP1 MLOAD SWAP3 DUP4 MSTORE PUSH1 0x20 DUP4 ADD SWAP2 SWAP1 SWAP2 MSTORE ADD JUMPDEST PUSH1 0x40 MLOAD DUP1 SWAP2 SUB SWAP1 RETURN JUMPDEST CALLVALUE DUP1 ISZERO PUSH2 0x1AD JUMPI PUSH1 0x0 DUP1 REVERT JUMPDEST POP PUSH2 0x1B7 PUSH1 0x9 SLOAD DUP2 JUMP JUMPDEST PUSH1 0x40 MLOAD SWAP1 DUP2 MSTORE PUSH1 0x20 ADD PUSH2 0x198 JUMP JUMPDEST CALLVALUE DUP1 ISZERO PUSH2 0x1D1 JUMPI PUSH1 0x0 DUP1 REVERT JUMPDEST POP PUSH2 0x23D PUSH2 0x1E0 CALLDATASIZE PUSH1 0x4 PUSH2 0x10AA JUMP JUMPDEST PUSH1 0x1 PUSH1 0x1 PUSH1 0xA0 SHL SUB AND PUSH1 0x0 SWAP1 DUP2 MSTORE PUSH1 0x7 PUSH1 0x20 SWAP1 DUP2 MSTORE PUSH1 0x40 SWAP2 DUP3 SWAP1 KECCAK256 DUP3 MLOAD PUSH1 0x80 DUP2 ADD DUP5 MSTORE DUP2 SLOAD PUSH1 0xFF SWAP1 DUP2 AND ISZERO ISZERO DUP1 DUP4 MSTORE PUSH1 0x1 DUP5 ADD SLOAD SWAP5 DUP4 ADD DUP6 SWAP1 MSTORE PUSH1 0x2 DUP5 ADD SLOAD SWAP6 DUP4 ADD DUP7 SWAP1 MSTORE PUSH1 0x3 SWAP1 SWAP4 ADD SLOAD AND ISZERO ISZERO PUSH1 0x60 SWAP1 SWAP2 ADD DUP2 SWAP1 MSTORE SWAP1 SWAP4 SWAP2 SWAP3 SWAP2 JUMP JUMPDEST PUSH1 0x40 DUP1 MLOAD SWAP5 ISZERO ISZERO DUP6 MSTORE PUSH1 0x20 DUP6 ADD SWAP4 SWAP1 SWAP4 MSTORE SWAP2 DUP4 ADD MSTORE ISZERO ISZERO PUSH1 0x60 DUP3 ADD MSTORE PUSH1 0x80 ADD PUSH2 0x198 JUMP JUMPDEST CALLVALUE DUP1 ISZERO PUSH2 0x26D JUMPI PUSH1 0x0 DUP1 REVERT JUMPDEST POP PUSH2 0x1B7 PUSH1 0x9 DUP2 JUMP JUMPDEST CALLVALUE DUP1 ISZERO PUSH2 0x282 JUMPI PUSH1 0x0 DUP1 REVERT JUMPDEST POP PUSH1 0x5 SLOAD PUSH2 0x290 SWAP1 PUSH1 0xFF AND DUP2 JUMP JUMPDEST PUSH1 0x40 MLOAD SWAP1 ISZERO ISZERO DUP2 MSTORE PUSH1 0x20 ADD PUSH2 0x198 JUMP JUMPDEST CALLVALUE DUP1 ISZERO PUSH2 0x2AC JUMPI PUSH1 0x0 DUP1 REVERT JUMPDEST POP PUSH2 0x2C0 PUSH2 0x2BB CALLDATASIZE PUSH1 0x4 PUSH2 0x10DA JUMP JUMPDEST PUSH2 0x61D JUMP JUMPDEST PUSH1 0x40 MLOAD PUSH1 0x1 PUSH1 0x1 PUSH1 0xA0 SHL SUB SWAP1 SWAP2 AND DUP2 MSTORE PUSH1 0x20 ADD PUSH2 0x198 JUMP JUMPDEST CALLVALUE DUP1 ISZERO PUSH2 0x2E4 JUMPI PUSH1 0x0 DUP1 REVERT JUMPDEST POP PUSH1 0x0 SLOAD PUSH2 0x2C0 SWAP1 PUSH1 0x1 PUSH1 0x1 PUSH1 0xA0 SHL SUB AND DUP2 JUMP JUMPDEST CALLVALUE DUP1 ISZERO PUSH2 0x304 JUMPI PUSH1 0x0 DUP1 REVERT JUMPDEST POP PUSH2 0x23D PUSH2 0x313 CALLDATASIZE PUSH1 0x4 PUSH2 0x10AA JUMP JUMPDEST PUSH1 0x7 PUSH1 0x20 MSTORE PUSH1 0x0 SWAP1 DUP2 MSTORE PUSH1 0x40 SWAP1 KECCAK256 DUP1 SLOAD PUSH1 0x1 DUP3 ADD SLOAD PUSH1 0x2 DUP4 ADD SLOAD PUSH1 0x3 SWAP1 SWAP4 ADD SLOAD PUSH1 0xFF SWAP3 DUP4 AND SWAP4 SWAP2 SWAP3 AND DUP5 JUMP JUMPDEST PUSH2 0x170 PUSH2 0x34D CALLDATASIZE PUSH1 0x4 PUSH2 0x10DA JUMP JUMPDEST PUSH2 0x647 JUMP JUMPDEST CALLVALUE DUP1 ISZERO PUSH2 0x35E JUMPI PUSH1 0x0 DUP1 REVERT JUMPDEST POP PUSH2 0x1B7 PUSH2 0x36D CALLDATASIZE PUSH1 0x4 PUSH2 0x10AA JUMP JUMPDEST PUSH1 0xA PUSH1 0x20 MSTORE PUSH1 0x0 SWAP1 DUP2 MSTORE PUSH1 0x40 SWAP1 KECCAK256 SLOAD DUP2 JUMP JUMPDEST CALLVALUE DUP1 ISZERO PUSH2 0x38B JUMPI PUSH1 0x0 DUP1 REVERT JUMPDEST POP PUSH1 0x2 SLOAD PUSH1 0x3 SLOAD PUSH1 0x5 SLOAD PUSH1 0x6 SLOAD PUSH1 0x9 SLOAD PUSH1 0x8 SLOAD PUSH1 0x40 DUP1 MLOAD SWAP7 DUP8 MSTORE PUSH1 0x20 DUP8 ADD SWAP6 SWAP1 SWAP6 MSTORE PUSH1 0xFF SWAP1 SWAP4 AND ISZERO ISZERO SWAP4 DUP6 ADD SWAP4 SWAP1 SWAP4 MSTORE PUSH1 0x60 DUP5 ADD MSTORE PUSH1 0x80 DUP4 ADD SWAP2 SWAP1 SWAP2 MSTORE PUSH1 0xA0 DUP3 ADD MSTORE PUSH1 0xC0 ADD PUSH2 0x198 JUMP JUMPDEST CALLVALUE DUP1 ISZERO PUSH2 0x3E1 JUMPI PUSH1 0x0 DUP1 REVERT JUMPDEST POP PUSH2 0x1B7 PUSH1 0x4 SLOAD DUP2 JUMP JUMPDEST CALLVALUE DUP1 ISZERO PUSH2 0x3F7 JUMPI PUSH1 0x0 DUP1 REVERT JUMPDEST POP PUSH1 0x1 SLOAD PUSH2 0x2C0 SWAP1 PUSH1 0x1 PUSH1 0x1 PUSH1 0xA0 SHL SUB AND DUP2 JUMP JUMPDEST CALLVALUE DUP1 ISZERO PUSH2 0x417 JUMPI PUSH1 0x0 DUP1 REVERT JUMPDEST POP PUSH2 0x2C0 PUSH2 0x426 CALLDATASIZE PUSH1 0x4 PUSH2 0x10DA JUMP JUMPDEST PUSH2 0x885 JUMP JUMPDEST PUSH2 0x170 PUSH2 0x439 CALLDATASIZE PUSH1 0x4 PUSH2 0x10DA JUMP JUMPDEST PUSH2 0x895 JUMP JUMPDEST CALLVALUE DUP1 ISZERO PUSH2 0x44A JUMPI PUSH1 0x0 DUP1 REVERT JUMPDEST POP PUSH2 0x1B7 PUSH2 0x459 CALLDATASIZE PUSH1 0x4 PUSH2 0x10AA JUMP JUMPDEST PUSH2 0xAC8 JUMP JUMPDEST CALLVALUE DUP1 ISZERO PUSH2 0x46A JUMPI PUSH1 0x0 DUP1 REVERT JUMPDEST POP PUSH2 0x1B7 PUSH1 0x3 SLOAD DUP2 JUMP JUMPDEST CALLVALUE DUP1 ISZERO PUSH2 0x480 JUMPI PUSH1 0x0 DUP1 REVERT JUMPDEST POP PUSH2 0x1B7 PUSH1 0x2 SLOAD DUP2 JUMP JUMPDEST CALLVALUE DUP1 ISZERO PUSH2 0x496 JUMPI PUSH1 0x0 DUP1 REVERT JUMPDEST POP PUSH2 0x170 PUSH2 0xC03 JUMP JUMPDEST PUSH2 0x170 PUSH2 0xCA8 JUMP JUMPDEST CALLVALUE DUP1 ISZERO PUSH2 0x4B3 JUMPI PUSH1 0x0 DUP1 REVERT JUMPDEST POP PUSH2 0x170 PUSH2 0xDBE JUMP JUMPDEST CALLVALUE DUP1 ISZERO PUSH2 0x4C8 JUMPI PUSH1 0x0 DUP1 REVERT JUMPDEST POP PUSH2 0x1B7 PUSH1 0x5 DUP2 JUMP JUMPDEST CALLVALUE DUP1 ISZERO PUSH2 0x4DD JUMPI PUSH1 0x0 DUP1 REVERT JUMPDEST POP PUSH2 0x1B7 PUSH1 0x6 SLOAD DUP2 JUMP JUMPDEST PUSH1 0x3 SLOAD TIMESTAMP LT ISZERO PUSH2 0x530 JUMPI PUSH1 0x40 MLOAD PUSH3 0x461BCD PUSH1 0xE5 SHL DUP2 MSTORE PUSH1 0x20 PUSH1 0x4 DUP3 ADD MSTORE PUSH1 0xF PUSH1 0x24 DUP3 ADD MSTORE PUSH15 0x139BDD081E595D08195E1C1A5C9959 PUSH1 0x8A SHL PUSH1 0x44 DUP3 ADD MSTORE PUSH1 0x64 ADD JUMPDEST PUSH1 0x40 MLOAD DUP1 SWAP2 SUB SWAP1 REVERT JUMPDEST PUSH1 0x5 SLOAD PUSH1 0xFF AND ISZERO PUSH2 0x553 JUMPI PUSH1 0x40 MLOAD PUSH3 0x461BCD PUSH1 0xE5 SHL DUP2 MSTORE PUSH1 0x4 ADD PUSH2 0x527 SWAP1 PUSH2 0x10F3 JUMP JUMPDEST PUSH1 0x0 DUP1 PUSH2 0x55E PUSH2 0xF37 JUMP JUMPDEST SWAP2 POP SWAP2 POP PUSH2 0xE10 PUSH1 0x3 SLOAD PUSH2 0x572 SWAP2 SWAP1 PUSH2 0x1132 JUMP JUMPDEST DUP2 LT ISZERO PUSH2 0x5B6 JUMPI PUSH1 0x40 MLOAD PUSH3 0x461BCD PUSH1 0xE5 SHL DUP2 MSTORE PUSH1 0x20 PUSH1 0x4 DUP3 ADD MSTORE PUSH1 0x12 PUSH1 0x24 DUP3 ADD MSTORE PUSH18 0x141C9A58D94819185D18481D1BDBC81BDB19 PUSH1 0x72 SHL PUSH1 0x44 DUP3 ADD MSTORE PUSH1 0x64 ADD PUSH2 0x527 JUMP JUMPDEST PUSH1 0x6 DUP3 SWAP1 SSTORE PUSH1 0x4 DUP2 SWAP1 SSTORE PUSH1 0x5 DUP1 SLOAD PUSH1 0xFF NOT AND PUSH1 0x1 OR SWAP1 SSTORE PUSH1 0x40 DUP1 MLOAD DUP4 DUP2 MSTORE PUSH1 0x20 DUP2 ADD DUP4 SWAP1 MSTORE PUSH32 0xBBDEA414CA4370D674FD5E370FBC6D7DA2DAFFF34EC019FAAF1C36B1180A314B SWAP2 ADD PUSH1 0x40 MLOAD DUP1 SWAP2 SUB SWAP1 LOG1 POP POP JUMP JUMPDEST PUSH1 0x0 DUP1 PUSH2 0x615 PUSH2 0xF37 JUMP JUMPDEST SWAP2 POP SWAP2 POP SWAP1 SWAP2 JUMP JUMPDEST PUSH1 0x8 DUP2 DUP2 SLOAD DUP2 LT PUSH2 0x62D JUMPI PUSH1 0x0 DUP1 REVERT JUMPDEST PUSH1 0x0 SWAP2 DUP3 MSTORE PUSH1 0x20 SWAP1 SWAP2 KECCAK256 ADD SLOAD PUSH1 0x1 PUSH1 0x1 PUSH1 0xA0 SHL SUB AND SWAP1 POP DUP2 JUMP JUMPDEST PUSH1 0x3 SLOAD TIMESTAMP LT PUSH2 0x68B JUMPI PUSH1 0x40 MLOAD PUSH3 0x461BCD PUSH1 0xE5 SHL DUP2 MSTORE PUSH1 0x20 PUSH1 0x4 DUP3 ADD MSTORE PUSH1 0x10 PUSH1 0x24 DUP3 ADD MSTORE PUSH16 0x10DBDB9D1C9858DD08195E1C1A5C9959 PUSH1 0x82 SHL PUSH1 0x44 DUP3 ADD MSTORE PUSH1 0x64 ADD PUSH2 0x527 JUMP JUMPDEST PUSH1 0x5 SLOAD PUSH1 0xFF AND ISZERO PUSH2 0x6AE JUMPI PUSH1 0x40 MLOAD PUSH3 0x461BCD PUSH1 0xE5 SHL DUP2 MSTORE PUSH1 0x4 ADD PUSH2 0x527 SWAP1 PUSH2 0x10F3 JUMP JUMPDEST PUSH1 0x0 DUP2 GT PUSH2 0x6FA JUMPI PUSH1 0x40 MLOAD PUSH3 0x461BCD PUSH1 0xE5 SHL DUP2 MSTORE PUSH1 0x20 PUSH1 0x4 DUP3 ADD MSTORE PUSH1 0x19 PUSH1 0x24 DUP3 ADD MSTORE PUSH25 0x5175616E74697479206D75737420626520706F736974697665 PUSH1 0x38 SHL PUSH1 0x44 DUP3 ADD MSTORE PUSH1 0x64 ADD PUSH2 0x527 JUMP JUMPDEST PUSH1 0x0 CALLVALUE GT PUSH2 0x744 JUMPI PUSH1 0x40 MLOAD PUSH3 0x461BCD PUSH1 0xE5 SHL DUP2 MSTORE PUSH1 0x20 PUSH1 0x4 DUP3 ADD MSTORE PUSH1 0x17 PUSH1 0x24 DUP3 ADD MSTORE PUSH23 0x135D5CDD081C1C9BDD9A59194818DBDB1B185D195C985B PUSH1 0x4A SHL PUSH1 0x44 DUP3 ADD MSTORE PUSH1 0x64 ADD PUSH2 0x527 JUMP JUMPDEST CALLER PUSH1 0x0 SWAP1 DUP2 MSTORE PUSH1 0x7 PUSH1 0x20 MSTORE PUSH1 0x40 SWAP1 KECCAK256 PUSH1 0x1 ADD SLOAD ISZERO PUSH2 0x79E JUMPI PUSH1 0x40 MLOAD PUSH3 0x461BCD PUSH1 0xE5 SHL DUP2 MSTORE PUSH1 0x20 PUSH1 0x4 DUP3 ADD MSTORE PUSH1 0x17 PUSH1 0x24 DUP3 ADD MSTORE PUSH23 0x506F736974696F6E20616C726561647920657869737473 PUSH1 0x48 SHL PUSH1 0x44 DUP3 ADD MSTORE PUSH1 0x64 ADD PUSH2 0x527 JUMP JUMPDEST PUSH1 0x40 DUP1 MLOAD PUSH1 0x80 DUP2 ADD DUP3 MSTORE PUSH1 0x0 DUP1 DUP3 MSTORE PUSH1 0x20 DUP1 DUP4 ADD DUP6 DUP2 MSTORE CALLVALUE DUP5 DUP7 ADD DUP2 DUP2 MSTORE PUSH1 0x60 DUP1 DUP8 ADD DUP7 DUP2 MSTORE CALLER DUP1 DUP9 MSTORE PUSH1 0x7 DUP8 MSTORE DUP10 DUP9 KECCAK256 SWAP9 MLOAD DUP10 SLOAD SWAP1 ISZERO ISZERO PUSH1 0xFF NOT SWAP2 DUP3 AND OR DUP11 SSTORE SWAP6 MLOAD PUSH1 0x1 DUP1 DUP12 ADD SWAP2 SWAP1 SWAP2 SSTORE SWAP4 MLOAD PUSH1 0x2 DUP11 ADD SSTORE SWAP1 MLOAD PUSH1 0x3 SWAP1 SWAP9 ADD DUP1 SLOAD SWAP9 ISZERO ISZERO SWAP9 SWAP1 SWAP6 AND SWAP8 SWAP1 SWAP8 OR SWAP1 SWAP4 SSTORE PUSH1 0x8 DUP1 SLOAD SWAP2 DUP3 ADD DUP2 SSTORE DUP6 MSTORE PUSH32 0xF3F7A9FE364FAAB93B216DA50A3214154F22A0A2B415B23A84C8169E8B636EE3 ADD DUP1 SLOAD PUSH1 0x1 PUSH1 0x1 PUSH1 0xA0 SHL SUB NOT AND DUP7 OR SWAP1 SSTORE DUP6 MLOAD SWAP4 DUP5 MSTORE SWAP2 DUP4 ADD DUP7 SWAP1 MSTORE SWAP4 DUP3 ADD MSTORE SWAP1 SWAP2 PUSH32 0x92F020F57FE38F73494C0DDC53833D0C93E1D1D82514D28F2C0BA30B169CD788 SWAP2 ADD JUMPDEST PUSH1 0x40 MLOAD DUP1 SWAP2 SUB SWAP1 LOG2 POP JUMP JUMPDEST PUSH1 0xB DUP2 DUP2 SLOAD DUP2 LT PUSH2 0x62D JUMPI PUSH1 0x0 DUP1 REVERT JUMPDEST PUSH1 0x3 SLOAD TIMESTAMP LT PUSH2 0x8D9 JUMPI PUSH1 0x40 MLOAD PUSH3 0x461BCD PUSH1 0xE5 SHL DUP2 MSTORE PUSH1 0x20 PUSH1 0x4 DUP3 ADD MSTORE PUSH1 0x10 PUSH1 0x24 DUP3 ADD MSTORE PUSH16 0x10DBDB9D1C9858DD08195E1C1A5C9959 PUSH1 0x82 SHL PUSH1 0x44 DUP3 ADD MSTORE PUSH1 0x64 ADD PUSH2 0x527 JUMP JUMPDEST PUSH1 0x5 SLOAD PUSH1 0xFF AND ISZERO PUSH2 0x8FC JUMPI PUSH1 0x40 MLOAD PUSH3 0x461BCD PUSH1 0xE5 SHL DUP2 MSTORE PUSH1 0x4 ADD PUSH2 0x527 SWAP1 PUSH2 0x10F3 JUMP JUMPDEST PUSH1 0x0 DUP2 GT PUSH2 0x948 JUMPI PUSH1 0x40 MLOAD PUSH3 0x461BCD PUSH1 0xE5 SHL DUP2 MSTORE PUSH1 0x20 PUSH1 0x4 DUP3 ADD MSTORE PUSH1 0x19 PUSH1 0x24 DUP3 ADD MSTORE PUSH25 0x5175616E74697479206D75737420626520706F736974697665 PUSH1 0x38 SHL PUSH1 0x44 DUP3 ADD MSTORE PUSH1 0x64 ADD PUSH2 0x527 JUMP JUMPDEST PUSH1 0x0 CALLVALUE GT PUSH2 0x992 JUMPI PUSH1 0x40 MLOAD PUSH3 0x461BCD PUSH1 0xE5 SHL DUP2 MSTORE PUSH1 0x20 PUSH1 0x4 DUP3 ADD MSTORE PUSH1 0x17 PUSH1 0x24 DUP3 ADD MSTORE PUSH23 0x135D5CDD081C1C9BDD9A59194818DBDB1B185D195C985B PUSH1 0x4A SHL PUSH1 0x44 DUP3 ADD MSTORE PUSH1 0x64 ADD PUSH2 0x527 JUMP JUMPDEST CALLER PUSH1 0x0 SWAP1 DUP2 MSTORE PUSH1 0x7 PUSH1 0x20 MSTORE PUSH1 0x40 SWAP1 KECCAK256 PUSH1 0x1 ADD SLOAD ISZERO PUSH2 0x9EC JUMPI PUSH1 0x40 MLOAD PUSH3 0x461BCD PUSH1 0xE5 SHL DUP2 MSTORE PUSH1 0x20 PUSH1 0x4 DUP3 ADD MSTORE PUSH1 0x17 PUSH1 0x24 DUP3 ADD MSTORE PUSH23 0x506F736974696F6E20616C726561647920657869737473 PUSH1 0x48 SHL PUSH1 0x44 DUP3 ADD MSTORE PUSH1 0x64 ADD PUSH2 0x527 JUMP JUMPDEST PUSH1 0x40 DUP1 MLOAD PUSH1 0x80 DUP2 ADD DUP3 MSTORE PUSH1 0x1 DUP1 DUP3 MSTORE PUSH1 0x20 DUP1 DUP4 ADD DUP6 DUP2 MSTORE CALLVALUE DUP5 DUP7 ADD DUP2 DUP2 MSTORE PUSH1 0x0 PUSH1 0x60 DUP1 DUP9 ADD DUP3 DUP2 MSTORE CALLER DUP1 DUP5 MSTORE PUSH1 0x7 DUP9 MSTORE DUP11 DUP5 KECCAK256 SWAP10 MLOAD DUP11 SLOAD SWAP1 ISZERO ISZERO PUSH1 0xFF NOT SWAP2 DUP3 AND OR DUP12 SSTORE SWAP7 MLOAD DUP11 DUP11 ADD SSTORE SWAP4 MLOAD PUSH1 0x2 DUP11 ADD SSTORE MLOAD PUSH1 0x3 SWAP1 SWAP9 ADD DUP1 SLOAD SWAP9 ISZERO ISZERO SWAP9 SWAP1 SWAP6 AND SWAP8 SWAP1 SWAP8 OR SWAP1 SWAP4 SSTORE PUSH1 0x8 DUP1 SLOAD DUP1 DUP8 ADD DUP3 SSTORE SWAP4 MSTORE PUSH32 0xF3F7A9FE364FAAB93B216DA50A3214154F22A0A2B415B23A84C8169E8B636EE3 SWAP1 SWAP3 ADD DUP1 SLOAD PUSH1 0x1 PUSH1 0x1 PUSH1 0xA0 SHL SUB NOT AND DUP4 OR SWAP1 SSTORE DUP6 MLOAD SWAP4 DUP5 MSTORE SWAP2 DUP4 ADD DUP7 SWAP1 MSTORE SWAP4 DUP3 ADD MSTORE PUSH32 0x92F020F57FE38F73494C0DDC53833D0C93E1D1D82514D28F2C0BA30B169CD788 SWAP2 ADD PUSH2 0x87A JUMP JUMPDEST PUSH1 0x5 SLOAD PUSH1 0x0 SWAP1 PUSH1 0xFF AND PUSH2 0xB0F JUMPI PUSH1 0x40 MLOAD PUSH3 0x461BCD PUSH1 0xE5 SHL DUP2 MSTORE PUSH1 0x20 PUSH1 0x4 DUP3 ADD MSTORE PUSH1 0xF PUSH1 0x24 DUP3 ADD MSTORE PUSH15 0x139BDD081CD95D1D1B1959081E595D PUSH1 0x8A SHL PUSH1 0x44 DUP3 ADD MSTORE PUSH1 0x64 ADD PUSH2 0x527 JUMP JUMPDEST PUSH1 0x1 PUSH1 0x1 PUSH1 0xA0 SHL SUB DUP3 AND PUSH1 0x0 SWAP1 DUP2 MSTORE PUSH1 0x7 PUSH1 0x20 SWAP1 DUP2 MSTORE PUSH1 0x40 SWAP2 DUP3 SWAP1 KECCAK256 DUP3 MLOAD PUSH1 0x80 DUP2 ADD DUP5 MSTORE DUP2 SLOAD PUSH1 0xFF SWAP1 DUP2 AND ISZERO ISZERO DUP3 MSTORE PUSH1 0x1 DUP4 ADD SLOAD SWAP4 DUP3 ADD DUP5 SWAP1 MSTORE PUSH1 0x2 DUP4 ADD SLOAD SWAP5 DUP3 ADD SWAP5 SWAP1 SWAP5 MSTORE PUSH1 0x3 SWAP1 SWAP2 ADD SLOAD SWAP1 SWAP3 AND ISZERO ISZERO PUSH1 0x60 DUP4 ADD MSTORE ISZERO DUP1 PUSH2 0xB72 JUMPI POP DUP1 PUSH1 0x60 ADD MLOAD JUMPDEST ISZERO PUSH2 0xB80 JUMPI POP PUSH1 0x0 SWAP3 SWAP2 POP POP JUMP JUMPDEST PUSH1 0x0 PUSH1 0x2 SLOAD PUSH1 0x6 SLOAD PUSH2 0xB92 SWAP2 SWAP1 PUSH2 0x114B JUMP JUMPDEST SWAP1 POP PUSH1 0x0 DUP3 PUSH1 0x0 ADD MLOAD ISZERO PUSH2 0xBB6 JUMPI PUSH1 0x20 DUP4 ADD MLOAD PUSH2 0xBAF SWAP1 DUP4 PUSH2 0x1172 JUMP JUMPDEST SWAP1 POP PUSH2 0xBD1 JUMP JUMPDEST PUSH1 0x20 DUP4 ADD MLOAD PUSH2 0xBC4 DUP4 PUSH2 0x11A2 JUMP JUMPDEST PUSH2 0xBCE SWAP2 SWAP1 PUSH2 0x1172 JUMP JUMPDEST SWAP1 POP JUMPDEST PUSH1 0x0 DUP2 DUP5 PUSH1 0x40 ADD MLOAD PUSH2 0xBE3 SWAP2 SWAP1 PUSH2 0x11BE JUMP JUMPDEST SWAP1 POP PUSH1 0x0 DUP2 SLT ISZERO PUSH2 0xBFA JUMPI POP PUSH1 0x0 SWAP6 SWAP5 POP POP POP POP POP JUMP JUMPDEST SWAP6 SWAP5 POP POP POP POP POP JUMP JUMPDEST PUSH1 0x1 SLOAD PUSH1 0x1 PUSH1 0x1 PUSH1 0xA0 SHL SUB AND CALLER EQ PUSH2 0xC49 JUMPI PUSH1 0x40 MLOAD PUSH3 0x461BCD PUSH1 0xE5 SHL DUP2 MSTORE PUSH1 0x20 PUSH1 0x4 DUP3 ADD MSTORE PUSH1 0x9 PUSH1 0x24 DUP3 ADD MSTORE PUSH9 0x2737BA1037BBB732B9 PUSH1 0xB9 SHL PUSH1 0x44 DUP3 ADD MSTORE PUSH1 0x64 ADD PUSH2 0x527 JUMP JUMPDEST PUSH1 0x5 SLOAD PUSH1 0xFF AND ISZERO PUSH2 0xC6C JUMPI PUSH1 0x40 MLOAD PUSH3 0x461BCD PUSH1 0xE5 SHL DUP2 MSTORE PUSH1 0x4 ADD PUSH2 0x527 SWAP1 PUSH2 0x10F3 JUMP JUMPDEST PUSH1 0x1 SLOAD PUSH1 0x40 MLOAD PUSH1 0x1 PUSH1 0x1 PUSH1 0xA0 SHL SUB SWAP1 SWAP2 AND SWAP1 SELFBALANCE DUP1 ISZERO PUSH2 0x8FC MUL SWAP2 PUSH1 0x0 DUP2 DUP2 DUP2 DUP6 DUP9 DUP9 CALL SWAP4 POP POP POP POP ISZERO DUP1 ISZERO PUSH2 0xCA5 JUMPI RETURNDATASIZE PUSH1 0x0 DUP1 RETURNDATACOPY RETURNDATASIZE PUSH1 0x0 REVERT JUMPDEST POP JUMP JUMPDEST PUSH1 0x0 CALLVALUE GT PUSH2 0xCF1 JUMPI PUSH1 0x40 MLOAD PUSH3 0x461BCD PUSH1 0xE5 SHL DUP2 MSTORE PUSH1 0x20 PUSH1 0x4 DUP3 ADD MSTORE PUSH1 0x16 PUSH1 0x24 DUP3 ADD MSTORE PUSH22 0x4D7573742070726F76696465206C6971756964697479 PUSH1 0x50 SHL PUSH1 0x44 DUP3 ADD MSTORE PUSH1 0x64 ADD PUSH2 0x527 JUMP JUMPDEST CALLER PUSH1 0x0 SWAP1 DUP2 MSTORE PUSH1 0xA PUSH1 0x20 MSTORE PUSH1 0x40 DUP2 KECCAK256 SLOAD SWAP1 SUB PUSH2 0xD4A JUMPI PUSH1 0xB DUP1 SLOAD PUSH1 0x1 DUP2 ADD DUP3 SSTORE PUSH1 0x0 SWAP2 SWAP1 SWAP2 MSTORE PUSH32 0x175B7A638427703F0DBE7BB9BBF987A2551717B34E79F33B5B1008D1FA01DB9 ADD DUP1 SLOAD PUSH1 0x1 PUSH1 0x1 PUSH1 0xA0 SHL SUB NOT AND CALLER OR SWAP1 SSTORE JUMPDEST CALLER PUSH1 0x0 SWAP1 DUP2 MSTORE PUSH1 0xA PUSH1 0x20 MSTORE PUSH1 0x40 DUP2 KECCAK256 DUP1 SLOAD CALLVALUE SWAP3 SWAP1 PUSH2 0xD69 SWAP1 DUP5 SWAP1 PUSH2 0x11E6 JUMP JUMPDEST SWAP3 POP POP DUP2 SWAP1 SSTORE POP CALLVALUE PUSH1 0x9 PUSH1 0x0 DUP3 DUP3 SLOAD PUSH2 0xD82 SWAP2 SWAP1 PUSH2 0x11E6 JUMP JUMPDEST SWAP1 SWAP2 SSTORE POP POP PUSH1 0x40 MLOAD CALLVALUE DUP2 MSTORE CALLER SWAP1 PUSH32 0xC17CEA59C2955CB181B03393209566960365771DBBA9DC3D510180E7CB312088 SWAP1 PUSH1 0x20 ADD PUSH1 0x40 MLOAD DUP1 SWAP2 SUB SWAP1 LOG2 JUMP JUMPDEST PUSH1 0x5 SLOAD PUSH1 0xFF AND PUSH2 0xE02 JUMPI PUSH1 0x40 MLOAD PUSH3 0x461BCD PUSH1 0xE5 SHL DUP2 MSTORE PUSH1 0x20 PUSH1 0x4 DUP3 ADD MSTORE PUSH1 0xF PUSH1 0x24 DUP3 ADD MSTORE PUSH15 0x139BDD081CD95D1D1B1959081E595D PUSH1 0x8A SHL PUSH1 0x44 DUP3 ADD MSTORE PUSH1 0x64 ADD PUSH2 0x527 JUMP JUMPDEST CALLER PUSH1 0x0 SWAP1 DUP2 MSTORE PUSH1 0x7 PUSH1 0x20 MSTORE PUSH1 0x40 SWAP1 KECCAK256 PUSH1 0x3 ADD SLOAD PUSH1 0xFF AND ISZERO PUSH2 0xE57 JUMPI PUSH1 0x40 MLOAD PUSH3 0x461BCD PUSH1 0xE5 SHL DUP2 MSTORE PUSH1 0x20 PUSH1 0x4 DUP3 ADD MSTORE PUSH1 0xF PUSH1 0x24 DUP3 ADD MSTORE PUSH15 0x105B1C9958591E4818DB185A5B5959 PUSH1 0x8A SHL PUSH1 0x44 DUP3 ADD MSTORE PUSH1 0x64 ADD PUSH2 0x527 JUMP JUMPDEST PUSH1 0x0 PUSH2 0xE62 CALLER PUSH2 0xAC8 JUMP JUMPDEST CALLER PUSH1 0x0 SWAP1 DUP2 MSTORE PUSH1 0x7 PUSH1 0x20 MSTORE PUSH1 0x40 SWAP1 KECCAK256 PUSH1 0x3 ADD DUP1 SLOAD PUSH1 0xFF NOT AND PUSH1 0x1 OR SWAP1 SSTORE SWAP1 POP DUP1 ISZERO PUSH2 0xCA5 JUMPI DUP1 SELFBALANCE LT ISZERO PUSH2 0xED7 JUMPI PUSH1 0x40 MLOAD PUSH3 0x461BCD PUSH1 0xE5 SHL DUP2 MSTORE PUSH1 0x20 PUSH1 0x4 DUP3 ADD MSTORE PUSH1 0x1D PUSH1 0x24 DUP3 ADD MSTORE PUSH32 0x496E73756666696369656E7420636F6E74726163742062616C616E6365000000 PUSH1 0x44 DUP3 ADD MSTORE PUSH1 0x64 ADD PUSH2 0x527 JUMP JUMPDEST PUSH1 0x40 MLOAD CALLER SWAP1 DUP3 ISZERO PUSH2 0x8FC MUL SWAP1 DUP4 SWAP1 PUSH1 0x0 DUP2 DUP2 DUP2 DUP6 DUP9 DUP9 CALL SWAP4 POP POP POP POP ISZERO DUP1 ISZERO PUSH2 0xF04 JUMPI RETURNDATASIZE PUSH1 0x0 DUP1 RETURNDATACOPY RETURNDATASIZE PUSH1 0x0 REVERT JUMPDEST POP PUSH1 0x40 MLOAD DUP2 DUP2 MSTORE CALLER SWAP1 PUSH32 0xEC68461F5D4CC45C89E914CB8826A966C73DD35E5F97815ECE0A01FFA4A025A6 SWAP1 PUSH1 0x20 ADD PUSH2 0x87A JUMP JUMPDEST PUSH1 0x0 DUP1 SLOAD PUSH1 0x40 MLOAD PUSH4 0x42A0F243 PUSH1 0xE0 SHL DUP2 MSTORE PUSH1 0x20 PUSH1 0x4 DUP3 ADD MSTORE PUSH1 0x3 PUSH1 0x24 DUP3 ADD MSTORE PUSH3 0x232629 PUSH1 0xE9 SHL PUSH1 0x44 DUP3 ADD MSTORE DUP3 SWAP2 PUSH1 0x1 PUSH1 0x1 PUSH1 0xA0 SHL SUB AND SWAP1 PUSH4 0x42A0F243 SWAP1 PUSH1 0x64 ADD PUSH1 0x40 DUP1 MLOAD DUP1 DUP4 SUB DUP2 DUP7 GAS STATICCALL SWAP3 POP POP POP DUP1 ISZERO PUSH2 0xFAF JUMPI POP PUSH1 0x40 DUP1 MLOAD PUSH1 0x1F RETURNDATASIZE SWAP1 DUP2 ADD PUSH1 0x1F NOT AND DUP3 ADD SWAP1 SWAP3 MSTORE PUSH2 0xFAC SWAP2 DUP2 ADD SWAP1 PUSH2 0x11F9 JUMP JUMPDEST PUSH1 0x1 JUMPDEST ISZERO PUSH2 0xFDD JUMPI PUSH1 0x0 PUSH2 0xFC3 PUSH3 0xF4240 DUP5 PUSH2 0x1233 JUMP JUMPDEST PUSH2 0xFD2 SWAP1 PUSH5 0x4A817C800 PUSH2 0x11E6 JUMP JUMPDEST SWAP6 SWAP2 SWAP5 POP SWAP1 SWAP3 POP POP POP JUMP JUMPDEST PUSH1 0x0 SLOAD PUSH1 0x40 MLOAD PUSH4 0x42A0F243 PUSH1 0xE0 SHL DUP2 MSTORE PUSH1 0x20 PUSH1 0x4 DUP3 ADD MSTORE PUSH1 0x3 PUSH1 0x24 DUP3 ADD MSTORE PUSH3 0x425443 PUSH1 0xE8 SHL PUSH1 0x44 DUP3 ADD MSTORE PUSH1 0x1 PUSH1 0x1 PUSH1 0xA0 SHL SUB SWAP1 SWAP2 AND SWAP1 PUSH4 0x42A0F243 SWAP1 PUSH1 0x64 ADD PUSH1 0x40 DUP1 MLOAD DUP1 DUP4 SUB DUP2 DUP7 GAS STATICCALL SWAP3 POP POP POP DUP1 ISZERO PUSH2 0x1054 JUMPI POP PUSH1 0x40 DUP1 MLOAD PUSH1 0x1F RETURNDATASIZE SWAP1 DUP2 ADD PUSH1 0x1F NOT AND DUP3 ADD SWAP1 SWAP3 MSTORE PUSH2 0x1051 SWAP2 DUP2 ADD SWAP1 PUSH2 0x11F9 JUMP JUMPDEST PUSH1 0x1 JUMPDEST ISZERO PUSH2 0x1077 JUMPI PUSH1 0x0 PUSH2 0x1068 PUSH3 0xF4240 DUP5 PUSH2 0x1233 JUMP JUMPDEST PUSH2 0xFD2 SWAP1 PUSH5 0x5D21DBA00 PUSH2 0x11E6 JUMP JUMPDEST PUSH1 0x0 PUSH2 0x1084 PUSH1 0x1E NUMBER PUSH2 0x1247 JUMP JUMPDEST PUSH2 0x1092 SWAP1 PUSH4 0x3B9ACA00 PUSH2 0x125B JUMP JUMPDEST PUSH2 0x10A1 SWAP1 PUSH5 0x4A817C800 PUSH2 0x11E6 JUMP JUMPDEST SWAP4 TIMESTAMP SWAP4 POP SWAP2 POP POP JUMP JUMPDEST PUSH1 0x0 PUSH1 0x20 DUP3 DUP5 SUB SLT ISZERO PUSH2 0x10BC JUMPI PUSH1 0x0 DUP1 REVERT JUMPDEST DUP2 CALLDATALOAD PUSH1 0x1 PUSH1 0x1 PUSH1 0xA0 SHL SUB DUP2 AND DUP2 EQ PUSH2 0x10D3 JUMPI PUSH1 0x0 DUP1 REVERT JUMPDEST SWAP4 SWAP3 POP POP POP JUMP JUMPDEST PUSH1 0x0 PUSH1 0x20 DUP3 DUP5 SUB SLT ISZERO PUSH2 0x10EC JUMPI PUSH1 0x0 DUP1 REVERT JUMPDEST POP CALLDATALOAD SWAP2 SWAP1 POP JUMP JUMPDEST PUSH1 0x20 DUP1 DUP3 MSTORE PUSH1 0xF SWAP1 DUP3 ADD MSTORE PUSH15 0x105B1C9958591E481CD95D1D1B1959 PUSH1 0x8A SHL PUSH1 0x40 DUP3 ADD MSTORE PUSH1 0x60 ADD SWAP1 JUMP JUMPDEST PUSH4 0x4E487B71 PUSH1 0xE0 SHL PUSH1 0x0 MSTORE PUSH1 0x11 PUSH1 0x4 MSTORE PUSH1 0x24 PUSH1 0x0 REVERT JUMPDEST DUP2 DUP2 SUB DUP2 DUP2 GT ISZERO PUSH2 0x1145 JUMPI PUSH2 0x1145 PUSH2 0x111C JUMP JUMPDEST SWAP3 SWAP2 POP POP JUMP JUMPDEST DUP2 DUP2 SUB PUSH1 0x0 DUP4 SLT DUP1 ISZERO DUP4 DUP4 SGT AND DUP4 DUP4 SLT DUP3 AND OR ISZERO PUSH2 0x116B JUMPI PUSH2 0x116B PUSH2 0x111C JUMP JUMPDEST POP SWAP3 SWAP2 POP POP JUMP JUMPDEST DUP1 DUP3 MUL PUSH1 0x0 DUP3 SLT PUSH1 0x1 PUSH1 0xFF SHL DUP5 EQ AND ISZERO PUSH2 0x118E JUMPI PUSH2 0x118E PUSH2 0x111C JUMP JUMPDEST DUP2 DUP2 SDIV DUP4 EQ DUP3 ISZERO OR PUSH2 0x1145 JUMPI PUSH2 0x1145 PUSH2 0x111C JUMP JUMPDEST PUSH1 0x0 PUSH1 0x1 PUSH1 0xFF SHL DUP3 ADD PUSH2 0x11B7 JUMPI PUSH2 0x11B7 PUSH2 0x111C JUMP JUMPDEST POP PUSH1 0x0 SUB SWAP1 JUMP JUMPDEST DUP1 DUP3 ADD DUP3 DUP2 SLT PUSH1 0x0 DUP4 SLT DUP1 ISZERO DUP3 AND DUP3 ISZERO DUP3 AND OR ISZERO PUSH2 0x11DE JUMPI PUSH2 0x11DE PUSH2 0x111C JUMP JUMPDEST POP POP SWAP3 SWAP2 POP POP JUMP JUMPDEST DUP1 DUP3 ADD DUP1 DUP3 GT ISZERO PUSH2 0x1145 JUMPI PUSH2 0x1145 PUSH2 0x111C JUMP JUMPDEST PUSH1 0x0 DUP1 PUSH1 0x40 DUP4 DUP6 SUB SLT ISZERO PUSH2 0x120C JUMPI PUSH1 0x0 DUP1 REVERT JUMPDEST POP POP DUP1 MLOAD PUSH1 0x20 SWAP1 SWAP2 ADD MLOAD SWAP1 SWAP3 SWAP1 SWAP2 POP JUMP JUMPDEST PUSH4 0x4E487B71 PUSH1 0xE0 SHL PUSH1 0x0 MSTORE PUSH1 0x12 PUSH1 0x4 MSTORE PUSH1 0x24 PUSH1 0x0 REVERT JUMPDEST PUSH1 0x0 DUP3 PUSH2 0x1242 JUMPI PUSH2 0x1242 PUSH2 0x121D JUMP JUMPDEST POP DIV SWAP1 JUMP JUMPDEST PUSH1 0x0 DUP3 PUSH2 0x1256 JUMPI PUSH2 0x1256 PUSH2 0x121D JUMP JUMPDEST POP MOD SWAP1 JUMP JUMPDEST DUP1 DUP3 MUL DUP2 ISZERO DUP3 DUP3 DIV DUP5 EQ OR PUSH2 0x1145 JUMPI PUSH2 0x1145 PUSH2 0x111C JUMP INVALID LOG2 PUSH5 0x6970667358 0x22 SLT KECCAK256 SIGNEXTEND 0xA8 0x2B 0xD5 BYTE PUSH15 0x473FCAACC1C2CC24024BC678ADEEFC 0xDD 0xAC 0xF9 0xD3 PREVRANDAO BYTE 0xA9 0x5D 0xBB 0xB5 DUP10 PUSH5 0x736F6C6343 STOP ADDMOD SGT STOP CALLER "},"methodIdentifiers":{"GWEI_DECIMALS()":"27e781bf","PRICE_DECIMALS()":"f1a640f8","addLiquidity()":"e8078d94","calculatePayout(address)":"a877933f","claimPayout()":"e88499a9","emergencyWithdraw()":"db2e21bc","expiryTimestamp()":"ade6e2aa","ftsoRegistry()":"38b5f869","getContractState()":"7f4e4849","getCurrentGasPrice()":"11af6564","getPosition(address)":"16c19739","isSettled()":"3270bb5b","liquidityProvided(address)":"65119f72","liquidityProviders(uint256)":"96212916","mintLong(uint256)":"97e5f43f","mintShort(uint256)":"56c610a1","owner()":"8da5cb5b","participants(uint256)":"35c1d349","positions(address)":"55f57510","settleContract()":"0891b256","settlementPrice()":"f348e8b2","settlementTimestamp()":"8192a437","strikePrice()":"c52987cf","totalLiquidity()":"15770f92"}}}}}