{
  "_format": "hh-sol-artifact-1",
  "contractName": "GasCapFutures",
  "sourceName": "contracts/GasCapFutures.sol",
  "abi": [
    {
      "inputs": [
        {
          "internalType": "uint256",
          "name": "_strikePrice",
          "type": "uint256"
        },
        {
          "internalType": "uint256",
          "name": "_expiryDuration",
          "type": "uint256"
        }
      ],
      "stateMutability": "nonpayable",
      "type": "constructor"
    },
    {
      "anonymous": false,
      "inputs": [
        {
          "indexed": false,
          "internalType": "uint256",
          "name": "settlementPrice",
          "type": "uint256"
        },
        {
          "indexed": false,
          "internalType": "uint256",
          "name": "timestamp",
          "type": "uint256"
        }
      ],
      "name": "ContractSettled",
      "type": "event"
    },
    {
      "anonymous": false,
      "inputs": [
        {
          "indexed": true,
          "internalType": "address",
          "name": "trader",
          "type": "address"
        },
        {
          "indexed": false,
          "internalType": "bool",
          "name": "isLong",
          "type": "bool"
        },
        {
          "indexed": false,
          "internalType": "uint256",
          "name": "quantity",
          "type": "uint256"
        },
        {
          "indexed": false,
          "internalType": "uint256",
          "name": "collateral",
          "type": "uint256"
        }
      ],
      "name": "FuturesMinted",
      "type": "event"
    },
    {
      "anonymous": false,
      "inputs": [
        {
          "indexed": true,
          "internalType": "address",
          "name": "provider",
          "type": "address"
        },
        {
          "indexed": false,
          "internalType": "uint256",
          "name": "amount",
          "type": "uint256"
        }
      ],
      "name": "LiquidityAdded",
      "type": "event"
    },
    {
      "anonymous": false,
      "inputs": [
        {
          "indexed": true,
          "internalType": "address",
          "name": "provider",
          "type": "address"
        },
        {
          "indexed": false,
          "internalType": "uint256",
          "name": "amount",
          "type": "uint256"
        }
      ],
      "name": "LiquidityRemoved",
      "type": "event"
    },
    {
      "anonymous": false,
      "inputs": [
        {
          "indexed": true,
          "internalType": "address",
          "name": "trader",
          "type": "address"
        },
        {
          "indexed": false,
          "internalType": "uint256",
          "name": "amount",
          "type": "uint256"
        }
      ],
      "name": "PayoutClaimed",
      "type": "event"
    },
    {
      "inputs": [],
      "name": "GWEI_DECIMALS",
      "outputs": [
        {
          "internalType": "uint256",
          "name": "",
          "type": "uint256"
        }
      ],
      "stateMutability": "view",
      "type": "function"
    },
    {
      "inputs": [],
      "name": "PRICE_DECIMALS",
      "outputs": [
        {
          "internalType": "uint256",
          "name": "",
          "type": "uint256"
        }
      ],
      "stateMutability": "view",
      "type": "function"
    },
    {
      "inputs": [],
      "name": "addLiquidity",
      "outputs": [],
      "stateMutability": "payable",
      "type": "function"
    },
    {
      "inputs": [
        {
          "internalType": "address",
          "name": "_trader",
          "type": "address"
        }
      ],
      "name": "calculatePayout",
      "outputs": [
        {
          "internalType": "uint256",
          "name": "",
          "type": "uint256"
        }
      ],
      "stateMutability": "view",
      "type": "function"
    },
    {
      "inputs": [],
      "name": "claimPayout",
      "outputs": [],
      "stateMutability": "nonpayable",
      "type": "function"
    },
    {
      "inputs": [],
      "name": "emergencyWithdraw",
      "outputs": [],
      "stateMutability": "nonpayable",
      "type": "function"
    },
    {
      "inputs": [],
      "name": "expiryTimestamp",
      "outputs": [
        {
          "internalType": "uint256",
          "name": "",
          "type": "uint256"
        }
      ],
      "stateMutability": "view",
      "type": "function"
    },
    {
      "inputs": [],
      "name": "ftsoRegistry",
      "outputs": [
        {
          "internalType": "contract IFtsoRegistry",
          "name": "",
          "type": "address"
        }
      ],
      "stateMutability": "view",
      "type": "function"
    },
    {
      "inputs": [],
      "name": "getContractState",
      "outputs": [
        {
          "internalType": "uint256",
          "name": "_strikePrice",
          "type": "uint256"
        },
        {
          "internalType": "uint256",
          "name": "_expiryTimestamp",
          "type": "uint256"
        },
        {
          "internalType": "bool",
          "name": "_isSettled",
          "type": "bool"
        },
        {
          "internalType": "uint256",
          "name": "_settlementPrice",
          "type": "uint256"
        },
        {
          "internalType": "uint256",
          "name": "_totalLiquidity",
          "type": "uint256"
        },
        {
          "internalType": "uint256",
          "name": "_participantCount",
          "type": "uint256"
        }
      ],
      "stateMutability": "view",
      "type": "function"
    },
    {
      "inputs": [],
      "name": "getCurrentGasPrice",
      "outputs": [
        {
          "internalType": "uint256",
          "name": "price",
          "type": "uint256"
        },
        {
          "internalType": "uint256",
          "name": "timestamp",
          "type": "uint256"
        }
      ],
      "stateMutability": "view",
      "type": "function"
    },
    {
      "inputs": [
        {
          "internalType": "address",
          "name": "_trader",
          "type": "address"
        }
      ],
      "name": "getPosition",
      "outputs": [
        {
          "internalType": "bool",
          "name": "isLong",
          "type": "bool"
        },
        {
          "internalType": "uint256",
          "name": "quantity",
          "type": "uint256"
        },
        {
          "internalType": "uint256",
          "name": "collateral",
          "type": "uint256"
        },
        {
          "internalType": "bool",
          "name": "isClaimed",
          "type": "bool"
        }
      ],
      "stateMutability": "view",
      "type": "function"
    },
    {
      "inputs": [],
      "name": "isSettled",
      "outputs": [
        {
          "internalType": "bool",
          "name": "",
          "type": "bool"
        }
      ],
      "stateMutability": "view",
      "type": "function"
    },
    {
      "inputs": [
        {
          "internalType": "address",
          "name": "",
          "type": "address"
        }
      ],
      "name": "liquidityProvided",
      "outputs": [
        {
          "internalType": "uint256",
          "name": "",
          "type": "uint256"
        }
      ],
      "stateMutability": "view",
      "type": "function"
    },
    {
      "inputs": [
        {
          "internalType": "uint256",
          "name": "",
          "type": "uint256"
        }
      ],
      "name": "liquidityProviders",
      "outputs": [
        {
          "internalType": "address",
          "name": "",
          "type": "address"
        }
      ],
      "stateMutability": "view",
      "type": "function"
    },
    {
      "inputs": [
        {
          "internalType": "uint256",
          "name": "_quantity",
          "type": "uint256"
        }
      ],
      "name": "mintLong",
      "outputs": [],
      "stateMutability": "payable",
      "type": "function"
    },
    {
      "inputs": [
        {
          "internalType": "uint256",
          "name": "_quantity",
          "type": "uint256"
        }
      ],
      "name": "mintShort",
      "outputs": [],
      "stateMutability": "payable",
      "type": "function"
    },
    {
      "inputs": [],
      "name": "owner",
      "outputs": [
        {
          "internalType": "address",
          "name": "",
          "type": "address"
        }
      ],
      "stateMutability": "view",
      "type": "function"
    },
    {
      "inputs": [
        {
          "internalType": "uint256",
          "name": "",
          "type": "uint256"
        }
      ],
      "name": "participants",
      "outputs": [
        {
          "internalType": "address",
          "name": "",
          "type": "address"
        }
      ],
      "stateMutability": "view",
      "type": "function"
    },
    {
      "inputs": [
        {
          "internalType": "address",
          "name": "",
          "type": "address"
        }
      ],
      "name": "positions",
      "outputs": [
        {
          "internalType": "bool",
          "name": "isLong",
          "type": "bool"
        },
        {
          "internalType": "uint256",
          "name": "quantity",
          "type": "uint256"
        },
        {
          "internalType": "uint256",
          "name": "collateral",
          "type": "uint256"
        },
        {
          "internalType": "bool",
          "name": "isClaimed",
          "type": "bool"
        }
      ],
      "stateMutability": "view",
      "type": "function"
    },
    {
      "inputs": [],
      "name": "settleContract",
      "outputs": [],
      "stateMutability": "nonpayable",
      "type": "function"
    },
    {
      "inputs": [],
      "name": "settlementPrice",
      "outputs": [
        {
          "internalType": "uint256",
          "name": "",
          "type": "uint256"
        }
      ],
      "stateMutability": "view",
      "type": "function"
    },
    {
      "inputs": [],
      "name": "settlementTimestamp",
      "outputs": [
        {
          "internalType": "uint256",
          "name": "",
          "type": "uint256"
        }
      ],
      "stateMutability": "view",
      "type": "function"
    },
    {
      "inputs": [],
      "name": "strikePrice",
      "outputs": [
        {
          "internalType": "uint256",
          "name": "",
          "type": "uint256"
        }
      ],
      "stateMutability": "view",
      "type": "function"
    },
    {
      "inputs": [],
      "name": "totalLiquidity",
      "outputs": [
        {
          "internalType": "uint256",
          "name": "",
          "type": "uint256"
        }
      ],
      "stateMutability": "view",
      "type": "function"
    },
    {
      "stateMutability": "payable",
      "type": "receive"
    }
  ],
  "bytecode": "0x608060405234801561001057600080fd5b5060405161138838038061138883398101604081905261002f91610086565b600180546001600160a01b031990811633179091556000805490911673ad67fe66660fb8dfe9d6b1b4240d8650e30f6019179055600282905561007281426100aa565b60035550506005805460ff191690556100d1565b6000806040838503121561009957600080fd5b505080516020909101519092909150565b808201808211156100cb57634e487b7160e01b600052601160045260246000fd5b92915050565b6112a8806100e06000396000f3fe60806040526004361061014f5760003560e01c80638192a437116100b6578063c52987cf1161006f578063c52987cf14610474578063db2e21bc1461048a578063e8078d941461049f578063e88499a9146104a7578063f1a640f8146104bc578063f348e8b2146104d157600080fd5b80638192a437146103d55780638da5cb5b146103eb578063962129161461040b57806397e5f43f1461042b578063a877933f1461043e578063ade6e2aa1461045e57600080fd5b806335c1d3491161010857806335c1d349146102a057806338b5f869146102d857806355f57510146102f857806356c610a11461033f57806365119f72146103525780637f4e48491461037f57600080fd5b80630891b2561461015b57806311af65641461017257806315770f92146101a157806316c19739146101c557806327e781bf146102615780633270bb5b1461027657600080fd5b3661015657005b600080fd5b34801561016757600080fd5b506101706104e7565b005b34801561017e57600080fd5b5061018761060a565b604080519283526020830191909152015b60405180910390f35b3480156101ad57600080fd5b506101b760095481565b604051908152602001610198565b3480156101d157600080fd5b5061023d6101e03660046110aa565b6001600160a01b03166000908152600760209081526040918290208251608081018452815460ff90811615158083526001840154948301859052600284015495830186905260039093015416151560609091018190529093919291565b60408051941515855260208501939093529183015215156060820152608001610198565b34801561026d57600080fd5b506101b7600981565b34801561028257600080fd5b506005546102909060ff1681565b6040519015158152602001610198565b3480156102ac57600080fd5b506102c06102bb3660046110da565b61061d565b6040516001600160a01b039091168152602001610198565b3480156102e457600080fd5b506000546102c0906001600160a01b031681565b34801561030457600080fd5b5061023d6103133660046110aa565b600760205260009081526040902080546001820154600283015460039093015460ff9283169391921684565b61017061034d3660046110da565b610647565b34801561035e57600080fd5b506101b761036d3660046110aa565b600a6020526000908152604090205481565b34801561038b57600080fd5b5060025460035460055460065460095460085460408051968752602087019590955260ff9093161515938501939093526060840152608083019190915260a082015260c001610198565b3480156103e157600080fd5b506101b760045481565b3480156103f757600080fd5b506001546102c0906001600160a01b031681565b34801561041757600080fd5b506102c06104263660046110da565b610885565b6101706104393660046110da565b610895565b34801561044a57600080fd5b506101b76104593660046110aa565b610ac8565b34801561046a57600080fd5b506101b760035481565b34801561048057600080fd5b506101b760025481565b34801561049657600080fd5b50610170610c03565b610170610ca8565b3480156104b357600080fd5b50610170610dbe565b3480156104c857600080fd5b506101b7600581565b3480156104dd57600080fd5b506101b760065481565b6003544210156105305760405162461bcd60e51b815260206004820152600f60248201526e139bdd081e595d08195e1c1a5c9959608a1b60448201526064015b60405180910390fd5b60055460ff16156105535760405162461bcd60e51b8152600401610527906110f3565b60008061055e610f37565b91509150610e106003546105729190611132565b8110156105b65760405162461bcd60e51b8152602060048201526012602482015271141c9a58d94819185d18481d1bdbc81bdb1960721b6044820152606401610527565b600682905560048190556005805460ff1916600117905560408051838152602081018390527fbbdea414ca4370d674fd5e370fbc6d7da2dafff34ec019faaf1c36b1180a314b910160405180910390a15050565b600080610615610f37565b915091509091565b6008818154811061062d57600080fd5b6000918252602090912001546001600160a01b0316905081565b600354421061068b5760405162461bcd60e51b815260206004820152601060248201526f10dbdb9d1c9858dd08195e1c1a5c995960821b6044820152606401610527565b60055460ff16156106ae5760405162461bcd60e51b8152600401610527906110f3565b600081116106fa5760405162461bcd60e51b81526020600482015260196024820152785175616e74697479206d75737420626520706f73697469766560381b6044820152606401610527565b600034116107445760405162461bcd60e51b8152602060048201526017602482015276135d5cdd081c1c9bdd9a59194818dbdb1b185d195c985b604a1b6044820152606401610527565b336000908152600760205260409020600101541561079e5760405162461bcd60e51b8152602060048201526017602482015276506f736974696f6e20616c72656164792065786973747360481b6044820152606401610527565b604080516080810182526000808252602080830185815234848601818152606080870186815233808852600787528988209851895490151560ff19918216178a5595516001808b0191909155935160028a0155905160039098018054981515989095169790971790935560088054918201815585527ff3f7a9fe364faab93b216da50a3214154f22a0a2b415b23a84c8169e8b636ee30180546001600160a01b0319168617905585519384529183018690529382015290917f92f020f57fe38f73494c0ddc53833d0c93e1d1d82514d28f2c0ba30b169cd78891015b60405180910390a250565b600b818154811061062d57600080fd5b60035442106108d95760405162461bcd60e51b815260206004820152601060248201526f10dbdb9d1c9858dd08195e1c1a5c995960821b6044820152606401610527565b60055460ff16156108fc5760405162461bcd60e51b8152600401610527906110f3565b600081116109485760405162461bcd60e51b81526020600482015260196024820152785175616e74697479206d75737420626520706f73697469766560381b6044820152606401610527565b600034116109925760405162461bcd60e51b8152602060048201526017602482015276135d5cdd081c1c9bdd9a59194818dbdb1b185d195c985b604a1b6044820152606401610527565b33600090815260076020526040902060010154156109ec5760405162461bcd60e51b8152602060048201526017602482015276506f736974696f6e20616c72656164792065786973747360481b6044820152606401610527565b6040805160808101825260018082526020808301858152348486018181526000606080880182815233808452600788528a842099518a5490151560ff19918216178b5596518a8a0155935160028a01555160039098018054981515989095169790971790935560088054808701825593527ff3f7a9fe364faab93b216da50a3214154f22a0a2b415b23a84c8169e8b636ee390920180546001600160a01b031916831790558551938452918301869052938201527f92f020f57fe38f73494c0ddc53833d0c93e1d1d82514d28f2c0ba30b169cd788910161087a565b60055460009060ff16610b0f5760405162461bcd60e51b815260206004820152600f60248201526e139bdd081cd95d1d1b1959081e595d608a1b6044820152606401610527565b6001600160a01b0382166000908152600760209081526040918290208251608081018452815460ff908116151582526001830154938201849052600283015494820194909452600390910154909216151560608301521580610b72575080606001515b15610b805750600092915050565b6000600254600654610b92919061114b565b90506000826000015115610bb6576020830151610baf9083611172565b9050610bd1565b6020830151610bc4836111a2565b610bce9190611172565b90505b6000818460400151610be391906111be565b90506000811215610bfa5750600095945050505050565b95945050505050565b6001546001600160a01b03163314610c495760405162461bcd60e51b81526020600482015260096024820152682737ba1037bbb732b960b91b6044820152606401610527565b60055460ff1615610c6c5760405162461bcd60e51b8152600401610527906110f3565b6001546040516001600160a01b03909116904780156108fc02916000818181858888f19350505050158015610ca5573d6000803e3d6000fd5b50565b60003411610cf15760405162461bcd60e51b81526020600482015260166024820152754d7573742070726f76696465206c697175696469747960501b6044820152606401610527565b336000908152600a60205260408120549003610d4a57600b80546001810182556000919091527f0175b7a638427703f0dbe7bb9bbf987a2551717b34e79f33b5b1008d1fa01db90180546001600160a01b031916331790555b336000908152600a602052604081208054349290610d699084906111e6565b925050819055503460096000828254610d8291906111e6565b909155505060405134815233907fc17cea59c2955cb181b03393209566960365771dbba9dc3d510180e7cb3120889060200160405180910390a2565b60055460ff16610e025760405162461bcd60e51b815260206004820152600f60248201526e139bdd081cd95d1d1b1959081e595d608a1b6044820152606401610527565b3360009081526007602052604090206003015460ff1615610e575760405162461bcd60e51b815260206004820152600f60248201526e105b1c9958591e4818db185a5b5959608a1b6044820152606401610527565b6000610e6233610ac8565b336000908152600760205260409020600301805460ff1916600117905590508015610ca55780471015610ed75760405162461bcd60e51b815260206004820152601d60248201527f496e73756666696369656e7420636f6e74726163742062616c616e63650000006044820152606401610527565b604051339082156108fc029083906000818181858888f19350505050158015610f04573d6000803e3d6000fd5b5060405181815233907fec68461f5d4cc45c89e914cb8826a966c73dd35e5f97815ece0a01ffa4a025a69060200161087a565b600080546040516342a0f24360e01b815260206004820152600360248201526223262960e91b604482015282916001600160a01b0316906342a0f243906064016040805180830381865afa925050508015610faf575060408051601f3d908101601f19168201909252610fac918101906111f9565b60015b15610fdd576000610fc3620f424084611233565b610fd2906404a817c8006111e6565b959194509092505050565b6000546040516342a0f24360e01b815260206004820152600360248201526242544360e81b60448201526001600160a01b03909116906342a0f243906064016040805180830381865afa925050508015611054575060408051601f3d908101601f19168201909252611051918101906111f9565b60015b15611077576000611068620f424084611233565b610fd2906405d21dba006111e6565b6000611084601e43611247565b61109290633b9aca0061125b565b6110a1906404a817c8006111e6565b93429350915050565b6000602082840312156110bc57600080fd5b81356001600160a01b03811681146110d357600080fd5b9392505050565b6000602082840312156110ec57600080fd5b5035919050565b6020808252600f908201526e105b1c9958591e481cd95d1d1b1959608a1b604082015260600190565b634e487b7160e01b600052601160045260246000fd5b818103818111156111455761114561111c565b92915050565b818103600083128015838313168383128216171561116b5761116b61111c565b5092915050565b80820260008212600160ff1b8414161561118e5761118e61111c565b81810583148215176111455761114561111c565b6000600160ff1b82016111b7576111b761111c565b5060000390565b80820182811260008312801582168215821617156111de576111de61111c565b505092915050565b808201808211156111455761114561111c565b6000806040838503121561120c57600080fd5b505080516020909101519092909150565b634e487b7160e01b600052601260045260246000fd5b6000826112425761124261121d565b500490565b6000826112565761125661121d565b500690565b80820281158282048414176111455761114561111c56fea26469706673582212200ba82bd51a6e473fcaacc1c2cc24024bc678adeefcddacf9d3441aa95dbbb58964736f6c63430008130033",
  "linkReferences": {},
  "deployedLinkReferences": {}
}